:020000022000DC
:1070000000000220BD720200398D0200E77202000A
:10701000E9720200EB720200ED7202000000000053
:10702000000000000000000000000000EF720200FD
:10703000F172020000000000598C0200D1800200B1
:10704000D9860200F7720200C58002009185020015
:10705000F7720200F7720200497F0200F772020025
:10706000F7720200F7720200F7720200F772020074
:10707000F7720200F7720200F7720200F772020064
:10708000F77202008D8B0200F7720200F7720200A5
:10709000F7720200F772020019890200F77202000B
:1070A000F7720200F7720200F7720200F772020034
:1070B000F7720200F77202000000000000000000FA
:1070C000F7720200F7720200F7720200F772020014
:1070D000F7720200F7720200F7720200F772020004
:1070E000F772020000000000000000000000000035
:1070F00000000000F772020000000000F7720200BA
:10710000000000000000000000000000000000007F
:10711000000000000000000000000000000000006F
:10712000000000000000000000000000000000005F
:10713000000000000000000000000000000000004F
:10714000000000000000000000000000000000003F
:10715000000000000000000000000000000000002F
:10716000000000000000000000000000000000001F
:10717000000000000000000000000000000000000F
:1071800000000000000000000000000000000000FF
:1071900000000000000000000000000000000000EF
:1071A00000000000000000000000000000000000DF
:1071B00000000000000000000000000000000000CF
:1071C00000000000000000000000000000000000BF
:1071D00000000000000000000000000000000000AF
:1071E000000000000000000000000000000000009F
:1071F000000000000000000000000000000000008F
:1072000010B5054C237833B9044B13B10448AFF3E0
:1072100000800123237010BD602B002000000000BF
:10722000DC9D020008B5034B1BB103490348AFF3D3
:10723000008008BD00000000642B0020DC9D0200DF
:10724000A3F5803A704700BF174B002B08BF134BC4
:107250009D46FFF7F5FF00218B460F461348144A61
:10726000121A01F04BFF0E4B002B00D098470D4B2C
:10727000002B00D098470020002104000D000D488D
:10728000002802D00C48AFF3008001F005FF200079
:10729000290001F08DFC01F0EBFE00BF00000800AA
:1072A000000000000000000000000220602B002011
:1072B000D435002000000000000000000649074A05
:1072C000074B9B1A03DD043BC858D050FBDC00F091
:1072D00051FDFFF7B9FF00007C9E0200E82A002064
:1072E000602B0020FEE7FEE7FEE7FEE7FEE7FEE795
:1072F000FEE7FEE7FEE7FEE77047000007B5044B38
:107300000093044A402300F032F803B05DF804FB18
:10731000197302007D2B00202DE9F843884614469E
:10732000B2B10F4B0F4E0325002743F0010922464F
:1073300008EB0701002000F075FF0744241A48B944
:1073400033782BB14FF47A40C847013D02D13570F4
:10735000BDE8F88301233370002CE8D1F8E700BFC3
:10736000D09A02007C2B0020704700F08BBFF0B554
:1073700095B01D46164608460C4600F0AAFC1A9B1E
:107380000D93CDE9086500252B46082205A9204666
:107390000A958DF82C500C9500F0ADFC079B0293DC
:1073A000069B03939DF814308DF8115003F00302EF
:1073B000012A1DD1BDF81420059DC3F3C203C2F3F9
:1073C00083168DF81030B20008230EA9204600F075
:1073D00092FCC5F3952508AB0093324602AB0EA98B
:1073E000284600F0FFF8204600F077FC15B0F0BD0D
:1073F000022AF8D1BDF81650C3F3C203C5F38915AC
:107400008DF810300827082D2E4628BF08263B4649
:1074100032460EA9204600F06EFCAD1B08AB02AA56
:1074200031460EA8374400F041F9002DEBD1DAE7E0
:1074300008B5FFF79AFF0448042100F04FF8034B0A
:1074400001225A7108BD00BF649E0200E82A002094
:10745000064B074810B500221A7000F022FC0446C3
:1074600010B9044800F051FC204610BD902C0020BB
:10747000F09D0200F89A020030B50A4C71B10A4A38
:107480000A49121BD20800239A4201D1002030BDC4
:1074900031F82350854202D00133F5E7034654F812
:1074A0003300F4E7049E0200649E0200602B00207B
:1074B000094B013903EBC000032909D8DFE801F0CB
:1074C0000A0204060420704700797047407970472B
:1074D0000020704702207047049E020030B5134917
:1074E000D1F810440346002022464AB9DC682071D6
:1074F000D1F8104454B9C1F81034DB681A6030BDBB
:10750000D268157985420AD01268EEE7E468DA6835
:1075100024681460D1F81024D2681360EFE70130BA
:107520000A28E1D14FF0FF30E9E700BF902C00209E
:1075300073B5C38804460D4633B1144A009214490A
:10754000144A284600F0A0F9217A05291CD0637A54
:107550004BB1A088FFF7ACFF0F4B104953F8202028
:10756000284600F091F9227A0D4BA08853F822604A
:107570000021FFF781FF0B4903463246284602B03F
:10758000BDE8704000F080B902B070BD249B0200DD
:107590000C9B0200049B0200989B0200299B0200A6
:1075A000BC9B02002C9B020010B5037A052B0C46F5
:1075B0000FD0437A23B1084A0849204600F064F905
:1075C0000749204600F060F92046BDE8104000F071
:1075D00050B9002AF8D0F3E7249B0200299B02004F
:1075E000729C02002DE9F04385B01F460C9D0023DC
:1075F00095F80C902B7306460C4690462946384663
:10760000FFF796FFB8F1060F09D8DFE808F004127B
:10761000181F283340003146284600F035F9002273
:1076200029463846FFF7C0FF85F80C9005B0BDE845
:10763000F08322683146284600F026F9EFE7D4E9C6
:1076400000233146284600F01FF9E8E7A3680093BD
:107650003146D4E90023284600F016F9DFE7E36855
:107660000193A36800933146D4E90023284600F033
:107670000BF9D4E723690293E3680193A3680093AD
:107680003146D4E90023284600F0FEF8C7E76369D5
:10769000039323690293E3680193A368009331463F
:1076A000D4E90023284600F0EFF8B8E708292DE9CF
:1076B000F84F80460E4617461C463DD8002593F8E5
:1076C0000C901D7319461046FFF732FFDFF884A0B7
:1076D000DFF884B0AE4231D918F80520594620466B
:1076E00000F0D2F80135082DF4D11C491C4DDFF80B
:1076F00074A0204600F0C8F84FF0000B5E4524D976
:1077000018F80B207E2A1ED8511C174BC9B2C95C31
:1077100011F0970F08BF2E225146204600F0B4F812
:107720000BF1010BBBF1080FE8D1012221463846CD
:10773000FFF73AFF84F80C90BDE8F88F51462046D9
:1077400000F0A2F8CEE72E22E6E72946204600F018
:107750009BF8E5E73C9B0200369B0200409B020041
:107760003E9B0200429B0200A09C020070B5EFF31A
:10777000108672B60C4A946801239CB993600B4B37
:107780000B4DD3F8801029401160C3F88050D3F816
:10779000841051604FF0FF32C3F88420047006B9A2
:1077A00062B670BD0370FAE74831002000E100E0E6
:1077B000FC06FFBD10B5084B9A685AB150B9EFF3FB
:1077C000108172B6054A1C6814605C685460986049
:1077D00001B962B610BD00BF4831002000E100E0F1
:1077E00010B5034653E8002F02EB010043E8000404
:1077F00094F0000FF6D110BD10B5034653E8002FEA
:10780000A2EB010043E8000494F0000FF6D110BD94
:1078100010B590B1D0E9012301689B1ADBB20A6070
:10782000013BDBB2FF2B026802D10020107110BDBA
:1078300011684C1C14600B70F2E70E20F7E737B5A7
:10784000054600230DF107000C468DF80730FFF7C1
:107850008DFF2A681368591C1160E968641A298A27
:10786000B4FBF1F41C709DF80700FFF7A3FF03B011
:1078700030BD10B5826804462AB1436901680069C9
:1078800098470023A36010BD0EB403B5039921B13E
:1078900004AB01AA019300F077F802B05DF804EBA5
:1078A00003B070470A2938B504460D4602D10D21B0
:1078B000FFF7F8FFA3682268591CA160D554D4E9EA
:1078C00001329A4204D32046BDE83840FFF7D1BFC9
:1078D00038BD00002DE9F84F9846DDE90A4315460A
:1078E00082460F460A464FF00109AA420FD2C1450F
:1078F00038BFC14613F0010B01D16CB90024012639
:10790000B8F1010F1BD908F1FF386E43F8E709F110
:107910000109B2FBF5F2E8E79B070ED5B8F1000FBD
:107920000CBF30262026A145E9D2013C3146504605
:10793000FFF7B8FF002CF6D1E0E72026F3E7B7FB0E
:10794000F6F39D42E1D9DFF83C80B7FBF6F35046F1
:1079500018F8031006FB1377FFF7A4FF3346AB427A
:10796000B6FBF5F6F1D2BBF1000F02D00CB1A14588
:1079700001D3BDE8F88F20215046013CFFF792FF6C
:10798000F4E700BFE59B02002DE9F74F05461746D7
:107990008846002900F03E8118F8011B49B92B7B6D
:1079A000002B00F03781284603B0BDE8F04FFFF709
:1079B00060BF252940F0B780002698F800302D2BB5
:1079C000424608F1010823D0302B24D02B2B25D0A0
:1079D00000242A2B02F1010123D13B681A1D3A60D1
:1079E0001B680A461C4413782E2B26D101324FF017
:1079F000000A104610F8011BA1F1300CBCF1090F70
:107A00001DD80A2303FB0A13A3F1300A0246F0E74C
:107A100046F00106D1E746F00206CEE746F004063E
:107A2000CBE711F8013CA3F130000928DBD80A228A
:107A300002FB0434303C0A46CBE74FF0000A12F850
:107A4000011B01F0FB0068289046F8D0782909D87E
:107A50006F290CD8632962D022D8252963D05829F0
:107A600000F0888098F80030002B95D197E77039A6
:107A70000829F7D801A353F821F000BFEF7B0200DB
:107A8000657A0200657A0200857B0200657A020051
:107A9000637B0200657A0200657A0200757B020052
:107AA000642901D06929DDD13A68111D3960D2F805
:107AB000009089EAE972A2EBE9724FF0010B092A02
:107AC00035DCD34538BFD3462CB1B9F1000F01DB0B
:107AD000720700D5013CB30702D5BAF1000F03D0FD
:107AE000F00701D44CBB0024B9F1000F2DDAC9F125
:107AF00000092D212846FFF7D5FE06F00302022AD1
:107B000004D1BAF1000F01D11CBB0024CDE900461D
:107B100053460A2249462846FFF7DCFEA2E73B68A7
:107B20001A1D3A6019782846FFF7BCFE9AE70A2327
:107B30000BF1010BB2FBF3F2C1E7A345D4D2202134
:107B40002846013CFFF7AEFECCE77107D5D52B21C7
:107B5000D0E7A345DAD230212846013CFFF7A2FE48
:107B6000D2E73968CDE900460A1D3A6053460A2239
:107B70000968D0E739680A1D3A60CDE900465346E6
:107B80001022F5E73B681A1D3A6016F00106D3F89B
:107B9000009024D1B9F1000F03D0484601F0DEFA7D
:107BA0000646B4421DD809F1FF3919F8011F002912
:107BB0003FF458AF2846FFF775FEF6E72846013632
:107BC000FFF770FE19F806100029F7D1A642BFF49E
:107BD00049AF20212846013CFFF764FEF6E7002666
:107BE000F0E720212846013CFFF75CFED9E73B681F
:107BF0001A1D3A60302128461C68FFF753FE782191
:107C00002846FFF74FFE00220823CDE90032214627
:107C1000102280E703B0BDE8F08F00BF2DE9F84FD8
:107C2000B0F806A04579D2F800B09DF828900AFB7C
:107C300005F5043D88460BEB0301A94203F104045A
:107C400088BFA5EB030BB4FBFAF607460AFB164404
:107C5000C2F800B04EB9AAEB04055D4528BF5D46E9
:107C6000BBF1000F04D1BDE8F88F3F68013EF1E79A
:107C7000043408EB06003C442A46B9F1000F0DD04D
:107C80002146ABEB050B01F02BFADA452E443F6899
:107C900055464FF0000428BF5D46E1E70146204607
:107CA000EFE7FFF7B5BDF8B546790146721E054608
:107CB000002393422D6803D30024A64202D8F8BDC6
:107CC0000133F6E70F682846FFF7B9FD013439465E
:107CD000F3E701210430FFF783BD10B5012104460D
:107CE0000430FFF789FDC0B220B92046BDE810403E
:107CF000FFF7D9BF10BD1FB503920122009203AA5E
:107D0000FFF78CFF05B05DF804FB826800239360E9
:107D100082681361826853618268D36082685360AD
:107D200082681360704701600B6843604A68934241
:107D300004BF002343607047436843B10268916801
:107D40000B4443605268934204BF00234360704772
:107D50004FF08053D3F83001A0F10D035842584141
:107D600070470000024AD2F80034002BFBD0704765
:107D700000E0014010B5FFF7EBFF40B14FF080434A
:107D80000022C3F80C21C3F81021C3F83825FFF7EF
:107D9000DFFF002846D04FF080524C4BD2F804143D
:107DA000C3F82015D2F80814C3F82415D2F80C141F
:107DB000C3F82815D2F81014C3F82C15D2F81414EF
:107DC000C3F83015D2F81814C3F83415D2F81C14BF
:107DD000C3F84015D2F82014C3F84415D2F824147F
:107DE000C3F84815D2F82814C3F84C15D2F82C144F
:107DF000C3F85015D2F83014C3F85415D2F834141F
:107E0000C3F86015D2F83814C3F86415D2F83C14DE
:107E1000C3F86815D2F84014C3F86C15D2F844249E
:107E2000C3F87025FFF794FF48B14FF08043D3F8B3
:107E30000024D20744BF6FF00102C3F800244FF0C2
:107E40008053D3F830210D2A0ED1D3F83431022BD0
:107E500002D81F4AD35C3BB14FF01023D3F808225D
:107E60004FF08043C3F858254FF01023D3F8002279
:107E7000002A03DBD3F80432002B22DA1549012350
:107E80004FF01020C1F804351224FFF76BFFC0F843
:107E90000042FFF767FFC0F80442FFF763FF0023CB
:107EA000C1F80435FFF75EFFBFF34F8F0A490B4B54
:107EB000CA6802F4E0621343CB60BFF34F8F00BF88
:107EC000FDE7074B074A1A6010BD00BF00C0004025
:107ED000FE9B020000E0014000ED00E00400FA0516
:107EE000F02A00200090D00300F1804000F5C0404F
:107EF000002382B0036003680193019B02B07047C6
:107F000003681F2B83BF03F01F03036001484FF07A
:107F1000A04070470003005007B5019001A8FFF78B
:107F2000EFFF019B00EB8300D0F8003723F44033D0
:107F3000C0F80037D0F8003743EA0141C0F8001715
:107F400003B05DF804FB00002DE9FF470024CDE9F4
:107F50000244584D4FF48072012102F1804303F531
:107F6000C04390B21B68012B06D1D5F804330B42F5
:107F700002D0FFF7B9FF0C430432B2F5907F4FEA0D
:107F80004101EAD14B4BD3F87C31012B11D14FF495
:107F9000BE70FFF7A9FF4FF0A04344F00044D3F8B0
:107FA00020250292C3F82025D3F820280392C3F895
:107FB0002028E3B2D3B1404F00250126344210D02F
:107FC000AB0003F1804303F5C043D3F81005D3F8A9
:107FD000101557F8253023B1C1F30141C0F3052036
:107FE00098470135082D4FEA4606E7D1002C59DAAB
:107FF000314D324C324E4FF00008012716F9013B4B
:108000005A1C3CD0C3F3C201103169445FFA83F9B2
:1080100011F8081C03F03F0203F0070307FA03F30B
:1080200019422CD001A80192FFF76AFF019B03F5CA
:10803000E07350F82330C3F3014ABAF1020F0CBFCA
:10804000032102211046FFF767FF01A80192FFF705
:1080500057FF019B07FA03F3C0F82035AB1893F9DB
:10806000303055F8233053B14FEA9911032904D029
:10807000BAF1020F19D1012901D11046984708F130
:108080000108B8F1040FB9D14FF0A043D3F820256F
:108090000292C3F82025D4F820350393C4F8203584
:1080A0001343A7D104B0BDE8F087BAF1030FE6D1BE
:1080B0000229E1E700600040543100200003005035
:1080C000AE310020014B1B68184700BFBC310020B7
:1080D000002108B5084600F0BBFE3F2372B683F3CB
:1080E000118862B600F004FF28B14FF0E0234FF092
:1080F0008052C3F8042D002383F31188BFF34F8F00
:1081000008BD0000BFF34F8F0549064BCA6802F453
:10811000E0621343CB60BFF34F8F00BFFDE700BFAA
:1081200000ED00E00400FA050369C26893429CBFB9
:1081300080681B18013B981A70472DE9F843D0E975
:1081400002940546A9EB04084068904520440F4678
:10815000144404D900F0C4FFEC60BDE8F883424643
:10816000A4EB090400F0BCFF6868224607EB080195
:10817000F0E72DE9F843C5680646894617464FF0F3
:1081800000083469B3687068A54228BFE418013C50
:10819000621B5C1BBC4228BF3C46944228BF14466D
:1081A00049462844224600F09BFFB3682544AB4271
:1081B00008BF00253F1BA044A144F560E1D1404623
:1081C000BDE8F88310B5114C114AA2610223C4E93D
:1081D0000433104BE361A2644FF400730E4A0F495D
:1081E0002362E26400231022E01DA3626362E36263
:1081F000A3656365E365226500F0A8FF0849204692
:1082000000F0A4FF2023A37110BD00BFC4310020E3
:10821000179C02004C3200203C320020209C0200BF
:10822000249C020070B5164B182400FB04451D4425
:1082300004FB00331646DC6A012C0ED0022C18D049
:10824000E4B92846FFF770FF864204D83246284634
:10825000FFF773FF3446204670BD2846FFF764FFE2
:108260008642344628BF044622462846FFF765FF6B
:10827000F1E72846BDE87040FFF77BBF0024EAE73E
:10828000C4310020FFF79EBF0023435082B0435803
:108290000193019B02B0704710B502468B6A486B90
:1082A00098424FF0010305D2496A095CC2F81C15D7
:1082B000184604E091F82C0010B1D361002010BDE5
:1082C0000C6A640603D5D36181F82D30F7E753615A
:1082D000EEE770B5D0F8046105460C4626B14FF4C0
:1082E0008271FFF7D1FF012694F82F2022B34FF4BB
:1082F00092712846FFF7C8FF4FF48E71FFF7C4FF55
:108300004FF48471FFF7C0FF002E69D094F82F203E
:10831000002384F82D3092BBA36A616B99421CBF85
:108320001646052386F001061CBFC5F80025C5F8D2
:10833000003584F82F6023E0D5F824314BB14FF499
:1083400092712846FFF7A0FF01236B6184F82F305C
:10835000DAE7D5F81C31ABB14FF48E712846FFF740
:1083600093FF636B01336363D5F8243113B14FF48A
:108370009271E7E72146FFF78FFF0028C4D1002262
:10838000104670BDD5F80831002BBDD04FF4847174
:108390002846FFF779FFD5F82431002BE7D1636B2E
:1083A000A16A8B42B0D2616AD5F81805C854636BD4
:1083B000A16A0133481E8342636308D1206A4006E4
:1083C00010D40223C5F8003201232B629CE78B42B4
:1083D000FAD1236A5B0697D5022384F82D30CFE7C4
:1083E0000122CDE78B42EFD1F6E7000037B5314BE4
:1083F00001930D464FF48271FFF746FF4FF49271DF
:10840000FFF742FF4FF48E71FFF73EFF4FF4847188
:10841000FFF73AFF0023C0F800326B6385F82F3076
:108420000123036295F82D209A4218BF83602946E4
:108430000446FFF731FF2B6883B140F28623AB601F
:10844000AB68C4F80433002003B030BD2946204691
:10845000FFF73FFF28B1019B013B0193019B002BDC
:10846000F4DC95F82F0050B9019B002BECDC0023C5
:10847000C4F800350523C4F800350320E4E7D4F838
:10848000C434C4F8C43493B113F0010F14BF4FF4D3
:108490000240032048F2012213F0020F18BF1046D9
:1084A00013F0040F48F2022318BF1846DCE703203C
:1084B000DAE700BFA086010037B5344B01930D46C3
:1084C0004FF48271FFF7E0FE4FF49271FFF7DCFE8C
:1084D0004FF48E71FFF7D8FE4FF48471FFF7D4FE8E
:1084E00000236B6385F82F30AB6A012B044617D14C
:1084F0002B6A5B0614D40223C4F8003201232362E2
:1085000095F82D20022A18BF23602B6893B140F202
:108510008623AB60AB68C4F80433002003B030BDE1
:108520000123E9E729462046FFF7D3FE28B1019B46
:10853000013B0193019B002BF4DC95F82F0050B90F
:10854000019B002BEADC0023C4F800350523C4F8A6
:1085500000350320E2E7D4F8C434C4F8C43493B13E
:1085600013F0010F14BF4FF40240032048F2012220
:1085700013F0020F18BF104613F0040F48F2022345
:1085800018BF1846DCE70320DAE700BFA086010029
:10859000F0B52B4C2B4887B02146FFF79AFE0028F8
:1085A00040D194F82F70D4F820C0FFB9237B9A1ED5
:1085B000012A1BD8616AA269914217D1E2696262FD
:1085C000CCF3401C62691F48A262032B84F82CC0C4
:1085D00084F82D70214604D107B0BDE8F040FFF7C4
:1085E00005BF07B0BDE8F040FFF766BF164E0FCEDF
:1085F00001AD0FC533682B60FFB1124AD2F8C43405
:10860000C2F8C43499070FD501238DF80030002338
:108610001CF0040F84F8303000D01FB1D4E90031D1
:108620006846984707B0F0BD5A0701D50223ECE72A
:10863000DB074CBF03230423E7E78DF80070E6E770
:108640004C340020003000405834002000F18040BD
:10865000002382B0036003680193019B02B070475E
:10866000044B0246187918B91A6001221A71704732
:108670008520704788340020074B1A68D20704D43D
:10868000C02283F8002301221A604FF080430122A8
:10869000C3F81825704700BF00E100E008B54FF4AB
:1086A0008270FFF7D3FF4FF080430222C3F8042308
:1086B00001229A6008BD4FF0804208B50223C2F83B
:1086C00008334FF48270FFF7C1FF0123D360D2F863
:1086D0001834DB03FBD408BD10B54FF08042D2F84C
:1086E000003153B14FF48070FFF7B0FF0123C2F89F
:1086F00008330B4B00201B6898474FF08042D2F89C
:10870000043163B14FF48270FFF7A0FF0223C2F877
:108710000833034BBDE810401B680120184710BD0B
:108720008834002038B5074C051E04F1080318BF33
:108730001C4623682BB11A6822605B68284698475C
:10874000F7E738BD9834002020B9054B01225A7054
:10875000FFF7E8BF012802D1014A9070F8E770479F
:108760009034002020B9034B01225A70FFF7DABF82
:10877000704700BF9034002038B50E4C2378B3B951
:108780000D486360A3602361E360FFF769FF05465E
:1087900000F0A8F808B9FFF76FFF01232370074B1B
:1087A000D3F800340BB10123A370284638BD8525CA
:1087B000F5E700BF90340020498702000000014027
:1087C00037B5184CA378054603F0FF029BB110B1F2
:1087D00043680120984700230DF107008DF807300A
:1087E000FEF7C4FFE3689DF807000133E360FEF77E
:1087F000E1FF03B030BD0DF107008DF80720FEF753
:10880000B5FF25B1226913463BB92A602561E368AB
:10881000002BE7D1FFF742FFE4E79D42F7D01B684A
:10882000F2E700BF9034002037B50D4C00230DF166
:1088300007008DF80730FEF799FFE368013BE3601E
:10884000E36833B9074BD3F8005415B9FFF733FF8A
:10885000A5709DF80700FEF7ADFF03B030BD00BF67
:108860009034002000000140012813B50CD00328EB
:1088700020D038B9134B0122C3F88020BFF34F8FAB
:10888000BFF36F8F02B010BD0F4C00230DF1070036
:108890008DF80730FEF76AFF23780BB9FFF76CFFFE
:1088A000E3689DF807000133E3600123A370FEF73E
:1088B00081FFE7E7FFF7E0FE02B0BDE81040FFF7F9
:1088C000B3BF00BF00E100E09034002008B500F025
:1088D00009F828B94FF08043D3F81804C0F30040DA
:1088E00008BD0000014B1878704700BFA434002079
:1088F00007B508496846FFF716FA019B13B903B09C
:108900005DF804FBD3E9002090476846FFF714FAAE
:10891000F3E700BF449C0200FFF7EABF00F5E070F8
:108920004FF0A043032243F820207047024B800100
:1089300043F00103184700BF509C020010B50446E5
:108940004FF47A70FFF7F2FF013CF9D110BD00003F
:108950002028054B4FF0010238BF4FF0A04302FA28
:1089600000F0C3F80C057047000300502028054BA9
:108970004FF0010238BF4FF0A04302FA00F0C3F8F5
:10898000080570470003005009B9FFF7E1BFFFF782
:10899000EDBF08B50320FFF7C1FF0420FFF7BEFFBE
:1089A0001C20FFF7BBFF1D20FFF7B8FF1E20FFF7BD
:1089B000B5FFBDE808401F20FFF7B0BF10B500F0BD
:1089C000010104461C20FFF7DFFFC4F340011D2016
:1089D000FFF7DAFFC4F380011E20FFF7D5FFC4F3D1
:1089E000C0011F20BDE81040FFF7CEBF10B5044600
:1089F0000320FFF7C9FF2009FFF7E0FF0420FFF77E
:108A0000B5FF0120FFF792FF0420FFF7A1FF6420CC
:108A1000FFF78CFF2046FFF7D1FF0420FFF7A6FFEA
:108A20000120FFF783FF0420FFF792FFBDE810400D
:108A30006420FFF77BBF08B5FFF7ABFF3220FFF7DD
:108A40007DFF0320FFF7BAFF0420FFF78FFF01200F
:108A5000FFF76CFF0420FFF77BFF0520FFF76EFF99
:108A60000320FFF7ABFF0420FFF780FF0120FFF793
:108A70005DFF0420FFF76CFF6420FFF757FF032022
:108A8000FFF79CFF0420FFF771FF0120FFF74EFF67
:108A90000420FFF75DFF6420FFF748FF0220FFF787
:108AA0008DFF0420FFF762FF0120FFF73FFF042046
:108AB000FFF74EFF6420FFF739FF00212820FFF762
:108AC00095FF2820FFF732FF00210C20FFF78EFFD3
:108AD0002820FFF72BFF01200021FFF787FFBDE8CB
:108AE00008400220FFF72ABF08B5012814BF8020E4
:108AF000C0200844C0B20021FFF778FFBDE808405D
:108B00002820FFF713BF10B5441E14F8010F00B959
:108B100010BD0121FFF76AFFF7E70000084B0222B2
:108B2000C3F80C251222C3F81425064AC3F82425DD
:108B30000422C3F8002501229A601A60704700BF22
:108B40000020004000502700074B0138002110F89A
:108B5000012F02B97047C3F81C25D3F81C21012A44
:108B6000FBD1C3F81C11F2E700200040064B0022A5
:108B7000C3F808254FF48032C3F84423C3F8042314
:108B800001221A60704700BF00100140064BD3F865
:108B9000402142B10022C3F8402101229A60034AD9
:108BA000136801331360704700100140BC3400208B
:108BB00080B5FFF7E1FD0020FFF702FEFFF786FE1C
:108BC0000028FBD04FF480410020FEF741FCFEF767
:108BD0002FFCFFF7CBFF184B4FF40042C3F84025A2
:108BE000164B4FF400321A60FFF798FFFFF723FF90
:108BF00000210120FFF778FF1148124C124F134E4D
:108C0000FFF781FF44F0010400210846FFF76CFFE5
:108C10003A680F49304600F079FA3046FFF773FFA3
:108C20000C48FFF791FF4FF47A754FF47A40A04754
:108C3000013DFAD120BFE7E70010014000E100E06C
:108C4000569C0200809C0200BC340020A534002009
:108C5000619C0200659C02002E4B2F4A4FF00101DF
:108C60004FEAC1614FF03F0072B680F3118862B6DF
:108C70001160586800282BD08446C2691968002901
:108C80002DD1002A11D14FF001034FEA0363234A8B
:108C9000A2F10102224988B005A80EC04FF00600DB
:108CA0006FEA0000BFF34F8F00472DE9F00F002A55
:108CB0001FD12EF0040EBDE8F00F60464FF02402E5
:108CC000805C1A7B8242DED34FF00000186058604F
:108CD0004FF0000080F31188BFF34F8F7047EFF320
:108CE0000980BFF36F8F20E9F00FC8616046002A4A
:108CF000DFD018604FF0000058604FF0000181F3A2
:108D000011884EF0040EB2E8F00F82F30988BFF329
:108D10004F8F7047B035002004ED00E07D8F0200DA
:108D2000258D020003484FF001014FEAC171016037
:108D3000FEE7000004ED00E04FF0000080F3118832
:108D400008B0704738B50346EFF311843F2272B67E
:108D500082F3118862B6C2681AB96E211148FFF712
:108D6000D1F9C068DA7D197D0132D2B29142DA754B
:108D70000ED39D7D1A6952F82520DA609A7D02B9DA
:108D800099759A7D013AD2B29A7584F3118838BDEB
:108D9000013100258A42DD60F7D084F311884FF459
:108DA0009B71DBE7869C020010B5837801467BB19E
:108DB000EFF311823F2072B680F3118862B6C87853
:108DC000012806D9CB78013BDBB2CB7082F3118846
:108DD00010BD013B82F31188084A12689A4204D8F8
:108DE00007484FF4CD71FFF78DF90648142404FBB2
:108DF00003000022BDE8104000F006B8FC3400205B
:108E00008E9C0200C034002008B5038AC2899BB240
:108E10009A4205D903688B4202D843688B4203D239
:108E20000A48C821FFF76EF9EFF311823F2372B6AB
:108E300083F3118862B683680B608160038A013313
:108E40009BB2038282F3118808BD00BF959C02008B
:108E500070B5264C142303FB0044EFF311833F222B
:108E600072B682F3118862B62546616831B9AA6884
:108E7000002A38D0AA686260A9606168CA689AB995
:108E80004A686260CA7802F07F02CA7083F3118870
:108E9000BFF36F8F2146EFF311833F2272B682F347
:108EA000118862B60C46E0E7CA68013ACA60CA682F
:108EB000A2B90A69886852B1CA600C4683F3118866
:108EC00003684FF6FF72DE680023B047E2E74A68A6
:108ED0006260CA7802F07F02CA70EFE783F31188FC
:108EE000BFF36F8FD7E783F3118870BD88350020FB
:108EF00038B51E4A1E4B10681E4CC0B11068597B15
:108F0000B0FA80F0C0F12000814210D3997B54F870
:108F1000211091F8240050B11168451E0122AA4089
:108F20000A4204D140F262211348FFF7EBF854F8EB
:108F30002020196812B94FF41B71F5E779B91C7B31
:108F4000844209D25A60D36943B14FF0E0234FF015
:108F50008052C3F8042D00E05960002038BD9142D2
:108F600001D05A60F1E700205860F7E7843500200F
:108F7000B0350020003500209C9C02002DE9F84F00
:108F8000374D2F7B6E68FFB20EB1202F04D94FF4FE
:108F90002F713448FFF7B6F8002396F82440DFF825
:108FA000C880DFF8C8906B602B60E3B22B734FF082
:108FB000000B8BF311883046FFF7C4FE336801467F
:108FC0005B6882465A46304698475046FFF7ECFEAB
:108FD0003F2372B683F3118862B6F36843B9D8F8B9
:108FE0000030621E0124944023EA0404C8F80040C3
:108FF000D8F800301BB96B602F73BDE8F88FD8F834
:109000000040B4FA84F4C4F1200459F8246016B97D
:1090100040F2C621BDE76B7BA3420ED3AB7BDBB234
:109020001C4653B1D8F80010013B012202FA03F3A9
:109030000B4202D14FF43471ABE7F3693BB959F8F5
:10904000272092F82420A242D5D26E60ADE74FF0DF
:10905000E0234FF080526E60C3F8042DCCE700BFD0
:10906000B03500209C9C0200843500200035002093
:1090700008B5074B044613B10021AFF30080054B40
:109080001868836A03B19847204600F00DFD00BFC1
:1090900000000000A49D020070B50D4D0D4C641B36
:1090A000A4100026A64209D10B4D0C4C00F0FEFC8A
:1090B000641BA4100026A64205D170BD55F8043BE0
:1090C00098470136EEE755F8043B98470136F2E73A
:1090D000582B0020582B0020582B00205C2B002000
:1090E0000A44914200F1FF3300D1704710B511F8E6
:1090F000014B03F8014F9142F9D110BD02440346E0
:10910000934200D1704703F8011BF9E70EB400B594
:109110009CB01DAB029006906FF00041094807918A
:109120000491094953F8042B05910068019302A9A1
:1091300000F078F8029B00221A701CB05DF804EB76
:1091400003B07047F42A00200802FFFF034611F81D
:10915000012B03F8012B002AF9D17047034613F8BD
:10916000012B002AFBD1181A013870472DE9F0476E
:109170008E689E4282460C4690461F4638D88A89A1
:1091800012F4906F32D025680969A5EB0109656971
:1091900005EB450505EBD57501334B446D109D423C
:1091A00038BF1D46530531D5294600F0A5FB0646BC
:1091B00050B90C23CAF80030A38943F04003A381BF
:1091C0004FF0FF30BDE8F08721694A46FFF788FF7E
:1091D000A38923F4906343F08003A3812661656132
:1091E0004E44A5EB09052660A5603E46BE4200D967
:1091F0003E4620683246414600F0FAFAA3689B1BBF
:10920000A3602368334423600020DBE72A4600F094
:10921000E7FB06460028E1D12169504600F002FB39
:10922000C7E700002DE9F04F98468B891B069DB0DB
:1092300007460D4614460ED50B6963B9402100F070
:109240005BFB2860286120B90C233B604FF0FF30A6
:10925000D1E040236B610023099320238DF829304E
:10926000CDF80C803023DFF8A8818DF82A304FF03C
:10927000010923469A4613F8012B0AB1252AF9D190
:10928000BAEB040B0BD05B46224629463846FFF763
:109290006DFF013000F0AA80099A5A4409929AF8A9
:1092A0000030002B00F0A28000234FF0FF32CDE908
:1092B00005230AF1010A049307938DF853301A939A
:1092C0005446052214F8011B514800F041FA049A53
:1092D000D8B9D00644BF20238DF85330110744BFBE
:1092E0002B238DF853309AF800302A2B15D0079A8B
:1092F000544600204FF00A0C214611F8013B303B48
:10930000092B4ED9B0B1079214E0A0EB080309FA7B
:1093100003F313430493A246D2E7039B191D1B6872
:109320000391002BBBBF5B4242F0020207930793FD
:10933000B8BF049223782E2B0CD163782A2B35D119
:10934000039B1A1D1B680392002BB8BF4FF0FF331D
:1093500002340593DFF8BCA021780322504600F0C8
:10936000F7F940B14023A0EB0A0003FA00F0049B98
:1093700003430134049314F8011B27488DF8281087
:10938000062200F0E5F9002838D0244B1BBB039BD4
:10939000073323F0070308330393099B33440993EE
:1093A00067E70CFB02320C460120A5E700230134DD
:1093B000059319464FF00A0C204610F8012B303A5D
:1093C000092A03D9002BC5D00591C3E70CFB012165
:1093D00004460123F0E703AB00932A46104B04A98F
:1093E0003846AFF30080421C0646D6D1AB895B06F7
:1093F0003FF52CAF09981DB0BDE8F08F03AB00938B
:109400002A46074B04A9384600F07AF8EBE700BF7C
:10941000A89D0200AE9D0200B29D02000000000067
:109420006D9102002DE9F047164699468A680B694E
:10943000DDF820809342B8BF1346336091F8432093
:1094400007460C460AB1013333602368990642BFD0
:10945000336802333360256815F0060506D104F140
:10946000190AE36832689B1AAB4226DC94F8432061
:10947000131E226818BF012392062BD404F1430265
:1094800049463846C04701301ED02368E568326837
:1094900003F00603042B08BFAD1AA36822690CBFB2
:1094A00025EAE57500259342C4BF9B1AED180026F6
:1094B0001A34B5421AD1002008E001235246494629
:1094C0003846C047013003D14FF0FF30BDE8F08788
:1094D0000135C6E7E1185A1C302081F843002244C8
:1094E00094F8451082F843100233C7E7012322465F
:1094F00049463846C0470130E6D00136D9E700007A
:109500002DE9FF470F7E0C9D782F914680460C4633
:109510009A4601F1430207D8622F0AD8002F00F0C3
:10952000D880582F00F0A38004F1420584F84270DF
:109530003AE0A7F16303152BF6D801A151F823F007
:1095400099950200AD950200299502002995020027
:109550002995020029950200AD9502002995020087
:10956000299502002995020029950200B99602006A
:10957000DD9502009B9602002995020029950200C4
:10958000DB96020029950200DD9502002995020074
:1095900029950200A39602002B681A1D1B682A60F9
:1095A00004F1420584F842300123A3E020682968D1
:1095B000060601F104030AD50E682B60002E03DABB
:1095C0002D23764284F843305E480A2319E00E6862
:1095D0002B6010F0400F18BF36B2EFE72B68206801
:1095E000191D2960010601D51E6802E04606FBD55B
:1095F0001E8854486F2F0CBF08230A23002184F8CB
:1096000043106568A560002DA2BF216821F0040108
:1096100021600EB9002D4DD01546B6FBF3F103FBCA
:109620001167C75D05F8017D3746BB420E46F4D988
:10963000082B0BD12368DE0708D52369616899429E
:10964000DEBF302305F8013C05F1FF35521B2261D6
:10965000CDF800A04B4603AA21464046FFF7E2FEA4
:1096600001304CD14FF0FF3004B0BDE8F0873548F1
:1096700081F845702968236851F8046B29601D063C
:1096800014D5DF0744BF43F0200323601EB92368CD
:1096900023F0200323601023B0E7236843F0200366
:1096A00023607823284884F84530E3E7590648BF0B
:1096B000B6B2E6E71546BBE72B6826686169181D58
:1096C000286035061B6801D5196002E07006FBD5DD
:1096D0001980002323611546BAE72B681A1D2A60FA
:1096E0001D6862680021284600F032F808B1401B6E
:1096F000606063682361002384F84330A8E723692E
:109700002A4649464046D0470130ABD023689B07E4
:1097100013D4E068039B9842B8BF1846A4E701231E
:10972000324649464046D04701309BD00135E36878
:1097300003995B1AAB42F2DCEBE7002504F1190652
:10974000F5E700BFB99D0200CA9D020000000000BD
:1097500001F0FF01102A2BDB10F0070F08D010F8E2
:10976000013B013A8B422DD010F0070F42B3F6D1E6
:10977000F0B441EA012141EA014122F007047FF0FF
:1097800000070023F0E80256083C85EA010586EA56
:10979000010685FA47F5A3FA87F586FA47F6A5FA92
:1097A00087F68EB9EED1F0BC01F0FF0102F007029E
:1097B00032B110F8013B013A83EA010313B1F8D149
:1097C0000020704701387047002D06BF354603382A
:1097D000073815F0010F07D1013015F4807F02BF63
:1097E000013015F4C03F0130F0BC0138704700BFB4
:1097F000884210B501EB020402D98442234607D8FF
:10980000431EA14208D011F8012B03F8012FF8E7FD
:10981000024401468A4200D110BD13F8014D02F8FE
:10982000014DF7E738B50546002941D051F8043C11
:109830000C1F002BB8BFE41800F012F91D4A136882
:1098400033B9636014602846BDE8384000F00EB9B3
:10985000A34208D9206821188B4201BF19685B68B0
:1098600009182160EDE71A465B680BB1A342FAD9EB
:1098700011685018A0420BD120680144501883424F
:109880001160E0D118685B68536001441160DAE749
:1098900002D90C232B60D6E7206821188B4204BF25
:1098A00019685B68636004BF091821605460CAE7E7
:1098B00038BD00BFC035002070B50E4E0C46316873
:1098C000054611B900F0BCF830602146284600F08A
:1098D000B7F8431C0AD0C41C24F00304A04207D0EC
:1098E000211A284600F0ACF8013001D14FF0FF34C6
:1098F000204670BDC43500202DE9F041CD1C25F077
:10990000030508350C2D38BF0C25002D074601DB5B
:10991000A94205D90C233B6000263046BDE8F08102
:109920002E4E00F09DF833681C4634BB294638465D
:10993000FFF7C2FF431C04464DD134682646002E73
:1099400040D123683146384604EB030800F078F82C
:1099500080453AD1216803356D1A25F00305083595
:109960000C2D38BF0C2529463846FFF7A5FF0130DE
:109970002BD023682B4423600EE02268521B1ED498
:109980000B2A16D96119A342256018BF5960636874
:1099900008BF316062514B60384604F10B0600F09D
:1099A00065F826F00706231DF21AB6D09B1BA350BC
:1099B000B3E76268A3420CBF32605A60ECE723460B
:1099C0006468B2E734467668B9E70C233B603846F2
:1099D00000F04CF8A1E72560DEE700BFC0350020AD
:1099E0002DE9F041804614460E4621B9BDE8F0410C
:1099F0001146FFF781BF2AB9FFF714FF2546284615
:109A0000BDE8F08100F038F88442074602D8B4EB94
:109A1000500F12D821464046FFF76EFF054600283A
:109A2000EDD0BC422246314628BF3A46FFF758FBEC
:109A300031464046FFF7F6FEE1E73546DFE7000036
:109A400038B5064D0023044608462B6000F01EF88A
:109A5000431C02D12B6803B1236038BDC8350020F8
:109A6000014800F011B800BFCC350020014800F0DB
:109A70000CB800BFCC35002051F8043C181F002B57
:109A8000BCBF0B58C018704770477047044A05495F
:109A90001368002B08BF0B46184410601846704727
:109AA000D0350020D8350020FEE700BFF8B500BF54
:109AB000F8BC08BC9E467047F8B500BFF8BC08BCAF
:109AC0009E467047000000000000000000000000FB
:109AD0000338FDD870470000FD7202006973020070
:109AE000F97202007274745F6C6F675F6261636B1E
:109AF000656E640061707000B03000207F0000006F
:109B0000303100201B5B313B33316D0025734C6FCE
:109B100067732064726F707065642028256429253E
:109B2000730D0A001B5B306D002573003C25733EEE
:109B30002025733A20002025303278002020200094
:109B40007C002563001B5B313B33306D001B5B31B8
:109B50003B33326D001B5B313B33336D001B5B319C
:109B60003B33346D001B5B313B33356D001B5B3188
:109B70003B33366D001B5B313B33376D00657272D2
:109B80006F72007761726E696E6700696E666F0052
:109B90006465627567000000249B0200459B02001B
:109BA000049B02004D9B0200559B02005D9B02003E
:109BB000659B02006D9B0200759B02000000000087
:109BC0007D9B0200839B02008B9B0200909B020006
:109BD0006170705F627574746F6E006170705F7435
:109BE000696D65720030313233343536373839417A
:109BF0004243444546736F72746C6973740000008D
:109C0000014750494F54450050525300554152545A
:109C1000005541525445005465726D696E616C0087
:109C20005254540053454747455200545749004346
:109C30004C4F434B00636C6F636B006E72665F73D7
:109C400064680000F09D0200F09D02000800000022
:109C50000338FDD870474920616D204861707079E4
:109C600000256C750048656C6C6F2C20776F726CEA
:109C700064210D0A00000000000000000000000048
:109C80000338FDD8704771665F6163747100716657
:109C90005F64796E0071665F6D656D0071786B0051
:109CA00000202020202020202020282828282820AC
:109CB00020202020202020202020202020202020A4
:109CC000208810101010101010101010101010100C
:109CD00010040404040404040404041010101010FC
:109CE00010104141414141410101010101010101C6
:109CF0000101010101010101010101011010101018
:109D00001010424242424242020202020202020297
:109D100002020202020202020202020210101010EB
:109D20002000000000000000000000000000000013
:109D30000000000000000000000000000000000023
:109D40000000000000000000000000000000000013
:109D50000000000000000000000000000000000003
:109D600000000000000000000000000000000000F3
:109D700000000000000000000000000000000000E3
:109D800000000000000000000000000000000000D3
:109D900000000000000000000000000000000000C3
:109DA00000000000F82A0020232D302B2000686CD2
:109DB0004C006566674546470030313233343536EE
:109DC0003738394142434445460030313233343527
:109DD0003637383961626364656600000000000050
:089DE00065870200000000008D
:089DE800698802000000000080
:109DF000C02B0020882C0020902C0020C82B002095
:049E00001800000046
:109E04002F9C020000000000019C020000000000E2
:109E1400089C0200000000002B9C020000000000CF
:109E24000C9C020000000000119C020000000000D5
:109E3400F49A020000000303D09B0200000000001B
:109E4400DB9B020000000000359C020000000000C3
:109E54003B9C020000000303F59B0200000000008D
:109E6400D89A020000000000E49A0200E82A0020C8
:089E7400CCD3FF7F01000000C8
:109E7C0000000000FF0000000090D003F82A002032
:109E8C0000000000000000000000000000000000C6
:109E9C0000000000000000000000000000000000B6
:109EAC0000000000000000000000000000000000A6
:109EBC000000000000000000000000000000000096
:109ECC000000000000000000000000000000000086
:109EDC000000000000000000000000000000000076
:089EEC00257202000172020060
:04000003200072BDAA
:00000001FF
