:020000022000DC
:10700000000002206D740200957402009774020063
:10701000997402009B7402009D740200000000003D
:107020000000000000000000000000009F7402004B
:10703000A174020000000000A3740200A574020005
:10704000A7740200A774020075920200499802001A
:10705000A7740200A77402008D910200BD720200A5
:10706000A7740200A7740200A7740200A7740200AC
:10707000A7740200A7740200A7740200A77402009C
:10708000A774020049830200A7740200A7740200DB
:10709000A7740200A7740200A7740200A77402007C
:1070A000A7740200A7740200A7740200A77402006C
:1070B000A7740200A7740200000000000000000096
:1070C000A7740200A7740200A7740200A77402004C
:1070D000A7740200A7740200A7740200A77402003C
:1070E000A774020000000000000000000000000083
:1070F00000000000A774020000000000A774020056
:10710000000000000000000000000000000000007F
:10711000000000000000000000000000000000006F
:10712000000000000000000000000000000000005F
:10713000000000000000000000000000000000004F
:10714000000000000000000000000000000000003F
:10715000000000000000000000000000000000002F
:10716000000000000000000000000000000000001F
:10717000000000000000000000000000000000000F
:1071800000000000000000000000000000000000FF
:1071900000000000000000000000000000000000EF
:1071A00000000000000000000000000000000000DF
:1071B00000000000000000000000000000000000CF
:1071C00000000000000000000000000000000000BF
:1071D00000000000000000000000000000000000AF
:1071E000000000000000000000000000000000009F
:1071F000000000000000000000000000000000008F
:1072000010B5054C237833B9044B13B10448AFF3E0
:1072100000800123237010BD5C2B002000000000C3
:107220006CA4020008B5034B1BB103490348AFF33C
:10723000008008BD00000000602B00206CA402004C
:10724000A3F5803A704700BF174B002B08BF134BC4
:107250009D46FFF7F5FF00218B460F461348144A61
:10726000121A02F061FB0E4B002B00D098470D4B19
:10727000002B00D098470020002104000D000D488D
:10728000002802D00C48AFF3008002F01BFB200066
:10729000290002F0FDFA02F001FB00BF0000080027
:1072A0000000000000000000000002205C2B002015
:1072B00038320020000000000000000010B588B047
:1072C000684BD3F80431002B2CD0664B0022C3F856
:1072D0000421D3F804310093009B634B93F82E20D4
:1072E00012B193F82F30EBB100238DF814305E4BC0
:1072F000596806911989ADF81C10D968002965D024
:10730000594B188B5883596018810021D96012B9E4
:10731000544B01221A60544C236805A89847002357
:1073200084F82F30504B93F82E305BB34D4BD3F88D
:1073300000313BB34B4B0022C3F80021D3F800319E
:107340000193019B484A538B92F82D108AB29342C5
:107350003FD99B1A9BB2444A53835068128992B218
:10736000D31A00EB43033F4AC2F82C36C2F830165A
:107370003C4B0022C3F80421D3F804210292029A64
:1073800001225A60374BD3F810317BB1354B0022C4
:10739000C3F81021D3F810310393039B324B1A74B6
:1073A00002228DF814201B6805A898472D4BD3F8AE
:1073B00014314BB32B4A0023C2F81431D2F81421F4
:1073C0000592059A284A137408B010BD00221A7459
:1073D000A1E7934208D09342CAD1234B012283F8FC
:1073E0002F2000225A83C3E71F48C0680028F2D02C
:1073F0001D4B012283F82F2000225A83194BC3F81A
:107400002C06C3F83016B3E7174B5C69002CDBD0B1
:10741000B4FA84F34FF00042DA4024EA020446331F
:107420009B0003F1804202F5E04211680029EDD093
:107430000021116012680492049A01228DF8142030
:10744000A3F58C73C3F3C7028DF8182013F0040F53
:107450000CBF01230B468DF81930034B1B6805A8A0
:107460009847D3E700700040782B00200649074A70
:10747000074B9B1A03DD043BC858D050FBDC01F0DE
:10748000D5FBFFF7E1FE0000ECA40200E82A002093
:107490005C2B0020FEE7FEE7FEE7FEE7FEE7FEE7E7
:1074A000FEE7FEE7FEE7FEE77047704700B583B0F2
:1074B000044B00934023044A00F030F803B05DF819
:1074C00004FB00BFCD740200AC2B00200AB3F8B55A
:1074D0000F4614460326002503E00E4B01221A70C6
:1074E000B4B122467919002001F034FF0544241A72
:1074F0000028F2D1074B1B7853B14FF47A40064B6A
:1075000043F001039847013EE7D1024B00221A7075
:10751000F8BD7047A82B002070990200F0B595B017
:107520000E4615461C46084601F0CEFA0E950F94FD
:10753000002410948DF8444012941A9B1393234610
:10754000082208A9304601F0E9FA0A9B0B93BDF81E
:107550002430ADF83030BDF82630ADF832308DF83B
:1075600035409DF8203003F00303012B06D0022B99
:1075700021D0304601F0AEFA15B0F0BD089DC5F33C
:1075800095259DF82030C3F3C2038DF83430BDF843
:107590002040C4F383140823A2000DEB03013046FE
:1075A00001F0BCFA0EAB00930BAB224602A92846B1
:1075B00000F0F0FCDDE7BDF82250C5F389159DF819
:1075C0002030C3F3C2038DF8343008272C46082D31
:1075D00028BF08243B46224602A9304601F09EFA05
:1075E00027442D1B0EAB0BAA214602A800F036FD46
:1075F000002DEBD1BDE7037813F0040F19D003F091
:107600000303012B03D0022B0AD00120704703880B
:10761000C3F383130A68134402330B6001207047DD
:107620004388C3F389130A68134402330B600120B3
:10763000704700207047000010B584B02D4C04F551
:10764000836000F0D0FE04F2144000F0CCFEA0688D
:107650000390C0B2023004EB8000043006E09DF8D5
:107660000C00831C234800EB8300043003A9FFF7C0
:10767000C2FF0028F3D100220BE0039B591C0391A9
:10768000DBB202331B4901EB83035B684DF8223008
:107690000132012AF1D99DF8003003F00303012BD8
:1076A00016D0022B1ED1BDF80640BDF80230C3F340
:1076B00089130333039A02EB930303930E4800F0FC
:1076C00097FE10B10B4B039A9A60204604B010BD90
:1076D000BDF80640BDF80030C3F38312039B13448A
:1076E0000393EBE705494FF4C27000F039FE002424
:1076F000E4E700BFBC2C0020D030002094990200A9
:107700000248034BC01AC008704700BFD4A402004F
:1077100084A4020099B110B50446FFF7F1FF0023DD
:1077200083420AD2074A32F823102268914201D0DC
:107730000133F5E72360002000E0052010BD0020A4
:10774000704700BF5C2B002000B583B0019001A8FA
:10775000FFF7E0FF30B9019A034B53F8320003B052
:107760005DF804FB0020FAE784A40200094B03EB58
:10777000C0030139032909D8DFE801F0020A040631
:107780000220704718797047587970470020704779
:107790000420704784A4020070470000034B9868DF
:1077A0005B68984214BF002001207047BC2C002069
:1077B0002DE9F04186B0FFF7F1FF002840F0248169
:1077C000044692480023C0F81834BFF34F8F8368F3
:1077D0000593DBB2023300EB8300043005E0DBB23B
:1077E00002338A4800EB8303181D05A9FFF703FF46
:1077F00030B3864BD3F8183423BB844B5A68059BAF
:107800009A42ECD8814B9A60FAE0059B591C05918D
:10781000DBB202337D4901EB8303596802AB43F8C5
:1078200022100132012AF0D99DF8083003F0030339
:10783000022B09D0012B73D0744BD3F81044CEE047
:107840000022EFE70022EDE7BDF80A30C3F3891606
:107850003446502E28BF502464F38F13ADF80A30FD
:1078600004F108016A4801F0FEF8054600283ED000
:1078700001F02AF9002308220DEB0201284601F04D
:1078800037F90599CB43DBB201339A00B4EB830F90
:107890003AD932B1CBB202335C4901EB8303191DF3
:1078A00000E05C494AB1D7B24AB1DFF868814AB119
:1078B000E4B2D2B2A21AD4B205E0E7B2F4E74FF0D4
:1078C0000008F4E7002408233A46284601F010F99E
:1078D00007F10803B8F1000F04D0224641462846BC
:1078E00001F006F90336059B03EB96060596002D7D
:1078F000A2D0464BD3F81044D3F81834002B47D00D
:10790000284601F0E7F876E0CBB202333F4901EBBD
:107910008301082322460431284601F0E9F8E1E713
:10792000BDF80820C2F38313062B28BF062363F398
:107930008912ADF8082002339900354801F093F818
:1079400005460028D3D001F0BFF8002308220DEB34
:107950000201284601F0CCF8002408260FE0059B20
:107960005A1C0592DBB20233284901EB83013346EE
:1079700004221144284601F0BBF804360134BDF856
:107980000830C3F38313A342E9D8B0E7E3681C6867
:107990004CB1E3685B79002BF8D023681B6829465B
:1079A00020469847F2E7284601F094F800238DF826
:1079B00007300DF1070000F06FFC144BD3F81834BA
:1079C00013B9124B059A9A609DF8070000F098FCD5
:1079D00011E023689B6820469847E3681C68002CE8
:1079E000F7D10D4B0D48C01AC00800040C4940F0F7
:1079F000020000F017F8FFF7D1FE80F00104E4B2B6
:107A0000204606B0BDE8F0810024F9E7BC2C002038
:107A100070A40200C82C002084A40200B4A40200B8
:107A2000E09902002DE9F04182B005460E460023A0
:107A30008DF807300DF1070000F02EFC374B5C6825
:107A40009B681B1B03F5807311E0344F07F21C4841
:107A50000121404600F0B1FCFFF7EEFD0146404633
:107A600000F0ABFCBB687A689B1A03F58073012BAE
:107A7000EBD90022012363F3010242F004026FF309
:107A80008912264F7968CBB2023307EB83035A6021
:107A9000023179609DF8070000F032FC4FEA15488A
:107AA000002107F21C4000F068FC80F31007FFF78C
:107AB00027FE80452CD2631CDBB248EA0747174AF1
:107AC000023302EB83035F60E4B2023402EB84040E
:107AD000237965F3C5032371A3886FF38913A3800A
:107AE000636866F39F2363602379012161F30103D7
:107AF0002371DBB26FF38203237113781BB1FFF79D
:107B000057FE0028FBD1FFF747FE02B0BDE8F08129
:107B1000034940F2A91000F023FCCCE7BC2C002064
:107B2000949902002DE9F04182B005460E4601927B
:107B300000238DF803300DF1030000F0ADFB3F4B47
:107B40005C689B681B1B03F5807311E03B4F07F2D9
:107B50001C480121404600F030FCFFF76DFD014656
:107B6000404600F02AFCBB687A689B1A03F58073D4
:107B7000022BEBD90022012363F3010242F004023D
:107B800063F389122D484168CBB2023300EB8303C3
:107B90005A60033141609DF8030000F0B1FBA01C66
:107BA00000236BB9C2B202A901EB830151F8047C36
:107BB000911C224A02EB8102576001330130F0E749
:107BC0002F0C00211E4800F0D8FB80F31008FFF7AF
:107BD00097FD87422CD2631CDBB247EA0847174A5D
:107BE000023302EB83035F60E4B2023402EB8404ED
:107BF000237965F3C5032371A388012161F38913F8
:107C0000A380636866F39F236360237961F30103B4
:107C10002371DBB26FF38203237113781BB1FFF77B
:107C2000C7FD0028FBD1FFF7B7FD02B0BDE8F0812A
:107C3000044940F2A91000F093FBCCE7BC2C0020D3
:107C4000D8300020949902002DE9F04184B0054617
:107C50000E460292039300238DF807300DF10700C2
:107C600000F01AFB404B5C689B681B1B03F580739C
:107C700011E03D4F07F21C480121404600F09DFBFA
:107C8000FFF7DAFC0146404600F097FBBB687A68D4
:107C90009B1A03F58073032BEBD90022012363F3B6
:107CA000010242F00402022363F389122E48416864
:107CB000CBB2023300EB83035A60043141609DF87C
:107CC000070000F01DFBA01C0023012B0DD8C2B241
:107CD00004A901EB830151F8087C911C224A02EBB4
:107CE0008102576001330130EFE72F0C00211F485C
:107CF00000F043FB80F31008FFF702FD87422DD20E
:107D0000631CDBB247EA0847174A023302EB8303DE
:107D10005F60E4B2023402EB8404237965F3C503A7
:107D20002371A388022161F38913A380636866F33A
:107D30009F2363602379012161F301032371DBB287
:107D40006FF38203237113781BB1FFF731FD002815
:107D5000FBD1FFF721FD04B0BDE8F081044940F2FA
:107D6000A91000F0FDFACBE7BC2C0020D830002091
:107D7000949902002DE9F04186B005460E46019225
:107D800002930C9B03930D9B04930E9B059300237E
:107D90008DF803300DF1030000F07EFA404B5C6873
:107DA0009B681B1B03F5807311E03D4F07F21C48D5
:107DB0000121404600F001FBFFF73EFC0146404632
:107DC00000F0FBFABB687A689B1A03F58073062BF8
:107DD000EBD90022012363F3010242F004020523E0
:107DE00063F389122E484168CBB2023300EB830360
:107DF0005A60073141609DF8030000F081FAA01C31
:107E00000023042B0DD8C2B206A901EB830151F85F
:107E1000147C911C224A02EB81025760013301302D
:107E2000EFE72F0C00211F4800F0A7FA80F310089D
:107E3000FFF766FC87422DD2631CDBB247EA084796
:107E4000174A023302EB83035F60E4B2023402EBB1
:107E50008404237965F3C5032371A388052161F3A5
:107E60008913A380636866F39F23636023790121EC
:107E700061F301032371DBB26FF382032371137883
:107E80001BB1FFF795FC0028FBD1FFF785FC06B07E
:107E9000BDE8F081044940F2A91000F061FACBE797
:107EA000BC2C0020D83000209499020010B5094B5A
:107EB000D3F8104401221A7008E0E36801225A71D5
:107EC00023685B6820469847E3681C68002CF4D15F
:107ED00010BD00BFBC2C002070B582B004460D461A
:107EE000C388A3B9217A05290FD0637ABBB9227A56
:107EF000104B53F822600021A088FFF725FC0346B1
:107F000032460D49284600F00BFB02B070BD0B4A0B
:107F100000920B4A0B49284600F002FBE2E7A088DA
:107F2000FFF724FC084B53F820200849284600F0AE
:107F3000F7FADCE7C49A0200249A0200189A0200B9
:107F4000F8990200009A0200A09A0200209A02000A
:107F500010B50C46037A052B0FD0437A3BB90A497A
:107F6000204600F0DDFA204600F0C6FA10BD074AB0
:107F70000749204600F0D4FAF1E7002AF3D002497D
:107F8000204600F0CDFAEEE7309A0200189A02007F
:107F9000209A02002DE9F04385B080460D46174631
:107FA0001E460C9C94F80C90002323732146304607
:107FB000FFF792FF062F09D8DFE807F00412181F19
:107FC000283340004146204600F0AAFA002221460C
:107FD0003046FFF7BDFF84F80C9005B0BDE8F08394
:107FE0002A684146204600F09BFAEFE76B682A6852
:107FF0004146204600F094FAE8E7AB6800936B68CE
:108000002A684146204600F08BFADFE7EB680193CF
:10801000AB6800936B682A684146204600F080FAFE
:10802000D4E72B690293EB680193AB6800936B680C
:108030002A684146204600F073FAC7E76B6903934C
:108040002B690293EB680193AB6800936B682A6815
:108050004146204600F064FAB8E70000082900D93C
:1080600070472DE9F84307460E4690461D4693F8A3
:108070000C9000241C7319461046FFF72DFF04E0F6
:108080001B49284600F04CFA0134072C07D8B442AB
:10809000F6D23A5D1749284600F042FAF4E716494D
:1080A000284600F03DFA002405E02E221349284618
:1080B00000F036FA0134072C10D8B44209D23A5DE8
:1080C0007E2AF2D80E4BD35C13F0970FEED12E22FE
:1080D000ECE70C49284600F023FAEBE70122294699
:1080E0004046FFF735FF85F80C90BDE8F88300BFE8
:1080F0003C9A0200349A0200409A0200449A02001C
:1081000067A302002C9A020082B001238DF8073089
:108110009DF80730134B186059609A6044F20103D0
:10812000984213D044F20203984207D10D4BDA6013
:10813000DA6812689A61DA685268DA6172B69DF894
:108140000730002BFBD162B602B07047054B1A61B5
:108150001A6992685A611A6912689A611A695268B2
:10816000DA61EBE7DC3000202DE9F04184B0044611
:108170000E46154672B6FFF799FEFFF719FB002869
:10818000FBD144F201039C423BD010D8012C1FD0FC
:1081900041F201039C4250D12E482F4BC01AC00817
:1081A00000042E4940F00100FFF73CFC1AE044F2C5
:1081B00002039C4241D12748274BC01AC008000443
:1081C0002B686A68264940F00100FFF73DFD09E091
:1081D0002048214BC01AC0080004224940F0010089
:1081E000FFF720FC204BD3F8F03013F0010F00D044
:1081F00000BE2A4631462046FFF786FF04B0BDE8A0
:10820000F081144F144BFF1AFF083F0447F0010799
:10821000D5F80880404600F0B7FC03466A68296834
:10822000029601910092424610493846FFF7A2FD9E
:108230000F493846FFF7F6FBD4E70648064BC01A4D
:10824000C008000432460B4940F00100FFF76AFC09
:10825000C8E700BFB4A4020084A40200049B02008B
:10826000289B0200E49A020000ED00E0449B02001B
:108270006C9B0200809B0200EFF30583C3F30803AD
:108280003BB9EFF3148313F0010F0CBF0120002062
:10829000704701207047000038B50446FFF7ECFF37
:1082A00001281CD1EFF3108272B6114B9B68DBB929
:1082B0000F4901238B600F4BD3F880000E4D2840EF
:1082C0000860C3F88050D3F8840048604FF0FF3155
:1082D000C3F884100023237002B962B638BD074981
:1082E000432000F03DF8DDE701232370F4E700BFF1
:1082F000FC30002000E100E0FC06FFBDA49B020072
:1083000010B50446FFF7B8FF012811D10B4B9B684D
:108310006BB164B9EFF3108172B6084B1868084A64
:1083200010605868506000229A6001B962B610BDB2
:108330000449512000F014F8E8E700BFFC300020A9
:1083400000E100E0A49B020008B5034B1B68034A50
:108350001068984708BD00BF103100200831002088
:1083600000B583B0009001916A46002144F20200FA
:10837000FFF7FAFE03B05DF804FB034653E8000F75
:108380000A4643E8002C9CF0000FF7D170470346E3
:1083900053E8002F42EA010043E8000C9CF0000F74
:1083A000F6D17047034653E8000F00EA010243E8A4
:1083B000002C9CF0000FF6D17047034653E8002FC5
:1083C00002EB010043E8000C9CF0000FF6D170476F
:1083D000034653E8002FA2EB010043E8000C9CF099
:1083E000000FF6D1704708B50121FFF7D0FF08BD97
:1083F00008B50021FFF7D6FF08BD000038B50C46D0
:10840000054620B1EB68288A00FB043038BD0249DC
:10841000E820FFF7A5FFF5E7F09B020038B50C4612
:10842000054630B1E868241A288AB4FBF0F0C0B2DF
:1084300038BD0249F520FFF793FFF3E7F09B0200F8
:1084400030B583B00446E8B100238DF807300DF154
:108450000700FFF721FF2268136861688B4217D974
:10846000591E116013F8011C2046FFF7C7FF05468F
:10847000A368226811685B1ADBB21179994208D2AD
:10848000137106E006494FF49270FFF769FFDBE7CE
:1084900000259DF80700FFF733FF284603B030BDE5
:1084A000F09B020070B582B00C460646B0B1DCB15C
:1084B00000238DF807300DF10700FFF7EDFE33685C
:1084C0001D686A1C1A6021463046FFF7A7FF287016
:1084D0009DF80700FFF714FF02B070BD054940F298
:1084E0004710FFF73DFFE2E702494FF4A470FFF7A2
:1084F00037FFDDE7F09B020010B5044640B1A268EB
:108500002AB163692168206998470023A36010BDE0
:1085100002493120FFF724FFF1E700BF349C02003D
:108520000EB430B582B0059D0446A0B16369BBB1FD
:108530002368D3B16368EBB145B10023019306AB67
:10854000019301AA2946204600F02AF902B0BDE8AD
:10855000304003B070470A494220FFF701FFE5E7CA
:1085600007494320FFF7FCFEE2E705494420FFF7F7
:10857000F7FEDFE702494520FFF7F2FEDCE700BF28
:10858000349C020038B504460D460A2909D02268F9
:10859000A368591CA160D554A26863689A4204D2AA
:1085A00038BD0D21FFF7EEFFF1E72046FFF7A4FFEE
:1085B000F6E700002DE9F84F82460F4615461E46A5
:1085C000DDF828900B9A0B464FF0010803E0B3FB4F
:1085D000F5F308F10108AB42F9D2B04500D2B0463C
:1085E00012F0010B13D1B9F1000F10D012F0020FED
:1085F0000FD086B1202405E009F1FF39214650460D
:10860000FFF7C0FFB9F1000F01D0C145F4D8012434
:1086100006E02024F6E73024F4E7013E05FB04F4ED
:10862000012EFAD8B7FBF4F39D42F7D9B7FBF4F368
:1086300004FB13770E4AD15C5046FFF7A3FF234695
:10864000B4FBF5F4AB42F1D2BBF1000F02D0B9F1AB
:10865000000F07D1BDE8F88F09F1FF3920215046FE
:10866000FFF790FFB9F1000FF4D0C145F4D8F1E75E
:10867000B49C02002DE9F04782B080460F461446B4
:1086800099460A9EDDF82CA081EAE17CACEBE17C06
:10869000012502E09CFBF4FC01356445FADD4D4503
:1086A00000D24D462EB1002F02DB1AF0040F00D08D
:1086B000013E1AF0020F02D0B9F1000F03D01AF0F8
:1086C000010F00D1CEB9002F1CDB1AF0040F1FD10F
:1086D0000AF00303022B20D0CDF804A000964B46ED
:1086E000224639464046FFF765FF02B0BDE8F087F5
:1086F000013E20214046FFF745FF002EE3D0AE4269
:10870000F6D8E0E77F422D214046FFF73BFFDFE749
:108710002B214046FFF736FFDAE7B9F1000FDBD136
:108720002EB9D9E7013E30214046FFF72BFF002E3E
:10873000D2D0AE42F6D8CFE7F8B506460D4614467D
:1087400013F001070ED1F1B1084601F0F5F8074624
:1087500019E0013501373046FFF714FF2978002969
:10876000F7D106E00027F9E7013C20213046FFF76A
:1087700009FFBC4201D9002CF6D1F8BD013C2021F3
:108780003046FFF7FFFEBC4201D9002CF6D1297814
:108790000029F2D001353046FFF7F4FEF7E700007C
:1087A000F0B583B00C461646054648B16B696BB10F
:1087B0002B688BB16B68ABB1002C40F08980D8E09E
:1087C0006F4940F25220FFF7CBFDEFE76C494FF4C1
:1087D0001570FFF7C5FDEBE7694940F25520FFF73B
:1087E000BFFDE7E7664940F25620FFF7B9FDE3E732
:1087F0000027012203E047F00107013482B121780C
:108800002D29F8D0302903D02B2905D00022F5E7F7
:1088100047F002070134F1E747F004070134EDE7C0
:108820002A290CD02178A1F13000C0B209280CD837
:10883000013402EB820201EB4202303AF0E7336886
:10884000191D31601B681A44013423782E2B02D085
:108850000023217810E0013400232178A1F13000B9
:10886000C0B20928F5D8013403EB830301EB4303BD
:10887000303BF2E714F8011F6C29FBD06829F9D0CE
:1088800025296FD020D378291ED858291CD35839D0
:10889000202919D8DFE801F03C1818181818181802
:1088A0001818181126181818182618181818181833
:1088B00050181847183118183C0033681A1D3260D8
:1088C00019782846FFF75EFE01342378002B4ED03E
:1088D00014F8011B00294AD0252989D02846FFF722
:1088E00051FEF2E73168081D306009680197009277
:1088F0000A222846FFF7BEFEE6E73168081D306011
:108900000968019700920A222846FFF753FEDBE729
:108910003168081D306009680197009210222846CE
:10892000FFF748FED0E731680B1D33603B4609680E
:108930002846FFF701FFC7E733681A1D32601F683A
:1089400030212846FFF71EFE78212846FFF71AFE41
:108950000023019308230093102239462846FFF78D
:1089600029FEB1E725212846FFF70CFEACE72B7B5B
:108970000BB903B0F0BD2846FFF7BEFDF9E700BF15
:10898000709C02002DE9F04F83B0884601929B460F
:108990009DF830900446D0B1B4F806A0637903FB8B
:1089A0000AFAAAF1040ADA4516D9E7880BF104039A
:1089B000B3FBF7F607FB1633019A156805EB0B02BC
:1089C000524501D9AAEB0B05019A15600BE0194934
:1089D000B620FFF7C5FCDFE71649C420FFF7C0FC4F
:1089E000E3E72468013E002EFBD1A7EB030AAA456A
:1089F00028BFAA46B3460DE052460146184600F08D
:108A000085FF2468A5EB0A05D344BA46AF4228BFC8
:108A1000AA4633465DB108EB0B0023440433B9F199
:108A2000000FE9D05246194600F070FFE9E703B0A5
:108A3000BDE8F08FC49C0200F8B501464679701E6F
:108A40000A46002301E0126801338342FBD3176812
:108A5000002405E00D683846FFF724FD013429465F
:108A6000A642F7D8F8BD2DE9F8430746048AA4F1D9
:108A7000040841440331B1FBF8F8FFF7E1FC064676
:108A8000F8B10025057101234371043CC4805FFAED
:108A900088F808F1FF3807608146454511D238460D
:108AA000FFF7CEFC044640B1737901337371C9F806
:108AB0000000076001358146EFE73046FFF7BCFF55
:108AC00026463046BDE8F88308B501210430FFF79B
:108AD00074FC08BD10B5044601210430FFF778FC92
:108AE00010F0FF0F00D010BD2046FFF7A5FFFAE7FA
:108AF00010B584B0144603920022009203AAFFF737
:108B000041FF039BA34201D104B010BD0249F620EE
:108B1000FFF726FCF8E700BFC49C020010B584B044
:108B2000144603920122009203AAFFF72BFF039B36
:108B3000A34201D104B010BD02494FF48070FFF789
:108B40000FFCF7E7C49C02000E4A02F594718A42BA
:108B500015D2A1EB020C4FEADC7303EBEC035B10C4
:108B600002EBC30C52F83330834201D96146EEE781
:108B700002D20CF10802EAE7DCF80400704700209A
:108B8000704700BF14A1020008B5FFF7DDFF00B178
:108B900008BD0148FCE700BF00A102004FF0805370
:108BA000D3F830310D2B01D00020704701207047E1
:108BB0004FF08053D3F830310D2B01D00020704797
:108BC000012070474FF08053D3F830310D2B01D086
:108BD00000207047012070474FF08053D3F83021B8
:108BE000D3F834310D2A01D000207047012B01D871
:108BF0000020704701207047024BD3F80034002B4F
:108C0000FAD0704700E0014008B5034BC3F80405F3
:108C1000FFF7F2FF08BD00BF00E00140014B024A30
:108C20001A607047F02A00200090D00338B5FFF793
:108C3000B5FF40B14FF080430022C3F80C21C3F8C8
:108C40001021C3F83825FFF7B3FF002846D04FF0B6
:108C50008052D2F804144B4BC3F82015D2F80814F4
:108C6000C3F82415D2F80C14C3F82815D2F8101440
:108C7000C3F82C15D2F81414C3F83015D2F8181410
:108C8000C3F83415D2F81C14C3F84015D2F82014D8
:108C9000C3F84415D2F82414C3F84815D2F82814A0
:108CA000C3F84C15D2F82C14C3F85015D2F8301470
:108CB000C3F85415D2F83414C3F86015D2F8381438
:108CC000C3F86415D2F83C14C3F86815D2F8401400
:108CD000C3F86C15D2F84424C3F87025FFF772FF6F
:108CE00060B14FF08043D3F8003413F0010F05D08A
:108CF0004FF080436FF00102C3F80024224AD2F8FB
:108D0000883043F47003C2F88830BFF34F8FBFF34D
:108D10006F8FFFF761FF38B14FF01023D3F80822AF
:108D20004FF08043C3F858254FF01023D3F800329A
:108D3000002B08DB4FF01023D3F80432002B02DBAA
:108D4000FFF76CFF38BD0120FFF75EFF4FF01024E6
:108D50001225C4F80052FFF74FFFC4F80452FFF782
:108D60004BFF0020FFF750FFBFF34F8F0649CA6843
:108D700002F4E062054B1343CB60BFF34F8F00BF9B
:108D8000FDE700BF00C0004000ED00E00400FA0570
:108D900038B5002512E04FF0FF3319E0002317E04B
:108DA00012494FF4F670FFF7DBFA17E04FF0A043DB
:108DB00004F5E0740C2243F824200135032D13D868
:108DC0000B4B5C5D6309E6D0012BE7D140F2FF332A
:108DD00004F01F02D34013F0010FE1D01F2CE5D99E
:108DE00004F01F04034BE3E738BD00BF3CA20200C0
:108DF000ACA202000003005010B50446032818D8A6
:108E0000154B1C5D630919D0012B1AD140F2FF33B9
:108E100004F01F02D34013F0010F14D01F2C18D9F7
:108E200004F01F040D4A012303FA04F4C2F80C45B0
:108E300010BD0B494120FFF793FAE1E74FF0FF33F4
:108E4000E6E70023E4E707494FF4F670FFF788FAF6
:108E5000E4E74FF0A042E6E7B0A2020000030050B2
:108E600074A202003CA2020010B50446032818D8E0
:108E7000154B1C5D630919D0012B1AD140F2FF3349
:108E800004F01F02D34013F0010F14D01F2C18D987
:108E900004F01F040D4A012303FA04F4C2F8084544
:108EA00010BD0B494720FFF75BFAE1E74FF0FF33B6
:108EB000E6E70023E4E707494FF4F670FFF750FABE
:108EC000E4E74FF0A042E6E7B0A202000003005042
:108ED00074A202003CA2020008B50020FFF78CFF3C
:108EE00008BD08B50020FFF7BFFF08BD10B500247E
:108EF00003E02046FFF7B8FF0134032CF9D910BD79
:108F000038B5002512E04FF0FF3319E0002317E0D9
:108F100013494FF4F670FFF723FA17E04FF0A04320
:108F200004F5E074032243F824200135032D13D8FF
:108F30000C4B5C5D6309E6D0012BE7D140F2FF33B7
:108F400004F01F02D34013F0010FE1D01F2CE5D92C
:108F500004F01F04044BE3E7FFF7C8FF38BD00BF70
:108F60003CA20200B0A202000003005010B504466B
:108F700010F0010F03D114F0020F03D110BDFFF761
:108F8000BFFFF8E7FFF704FFF8E70000034B0344D7
:108F900093F95A0000F03F00704700BF14310020E1
:108FA000034B034493F95A00C0F38110704700BF8C
:108FB0001431002082B08446114B93E8030002ABC9
:108FC00003E90300604600230BE002AA02EB8302E0
:108FD00052F8082CD2F8201540F8041BC2F82015CE
:108FE0000133012BF1D90023012B04D85CF8232095
:108FF00022B90133F8E7002002B070470120FBE7F7
:10900000BCA202002DE9F8430646B5E04FF0FF335D
:1090100052E0002350E05A494FF4F670FFF7A0F9F0
:1090200050E023464FF0A04251E04FF0030958E0D2
:109030004FF0FF335BE0002359E051494FF4F670E5
:10904000FFF78EF959E023464FF0A0425AE04FF067
:10905000FF336BE0002369E049494FF4F670FFF7F6
:109060007FF969E021464FF0A0426AE0B8F1010FB4
:1090700078D14146204698470135032D78D8414B99
:109080002B4493F95A30B3F1FF3FF5D02846FFF750
:109090007DFF0446C20800F0070101238B40B25C4B
:1090A0001342E9D02846FFF77BFF80466309ADD025
:1090B000012BAED140F2FF3304F01F02D34013F076
:1090C000010FA8D01F2CACD904F01F032E4A03F5C2
:1090D000E07352F82370C7F30147022FA5D04FF079
:1090E00002096309A4D0012BA5D140F2FF3304F09B
:1090F0001F02D34013F0010F9FD01F2CA3D904F0FF
:109100001F03214A03F5E07352F8231021F4403184
:1091100042F8231052F8231041EA094142F8231083
:10912000630994D0012B95D140F2FF3304F01F0264
:10913000D34013F0010F8FD01F2C93D904F01F01DF
:10914000114A01238B40C2F820350E4B1A1992F9AF
:10915000302053F82230002B8ED0B8F1030F88D086
:10916000022F83D0032F87D1B8F1020F84D180E77B
:109170003046FFF71FFF08B100257EE7BDE8F88302
:109180003CA20200143100200003005070B586B0EC
:1091900000250495059501204FF48073294603E0CE
:1091A000400004339BB20131072912D803F18042F9
:1091B00002F5C0421468012CF2D12B4CD4F80443C0
:1091C0002042EDD00024146012680092009A0543FA
:1091D000E6E7254BD3F87C31012B06D015F0FF0FC5
:1091E0003BD1002D3CDB06B070BD1F4A0023C2F806
:1091F0007C31D2F87C210192019A45F000451B494F
:1092000002AA03C982E8030004A80BE006AA02EB45
:10921000830252F8102CD2F8201540F8041BC2F833
:1092200020150133012BF1D9D8E776000134072C42
:10923000D7D82E42F9D00C4B04F5A27253F8220075
:10924000C0F3052053F82210C1F30141084B53F835
:109250002430002BE9D09847E7E701260024E6E711
:1092600004A8FFF7CFFEBEE700600040BCA20200EA
:109270001431002008B5064B1B681BB1044B1B685A
:10928000984708BD03495120FFF76AF8F6E700BF89
:109290007C310020C4A202000369C268934204D852
:1092A0008068801A0344581E70479B1A581E7047E6
:1092B0002DE9F843044688461646C5688768A7EB3B
:1092C0000509914507D94068284400F01FFB354443
:1092D000E560BDE8F88340684A46284400F016FB84
:1092E000ED1B35442A4608EB0901606800F00EFBCF
:1092F000E560EEE72DE9F843064688461746C5685F
:109300004FF0000918E0641B621EB3685C1B9442B6
:1093100028BF1446BC4228BF3C46706822464146DE
:10932000284400F0F3FAA144A0443F1B2544B3684D
:10933000AB4209D0F5604FB13469A542E3D3B268BE
:10934000641B1444621EE0E70025F3E74846BDE8CD
:10935000F8830000F8B50F461646184B451C05EB80
:10936000450503EBC50500EB400003EBC000C46AF4
:10937000012C11D0022C1CD014B100242046F8BDC1
:109380002846FFF789FF8642F8D8324639462846F4
:10939000FFF78EFF3446F1E72846FFF77DFF34469E
:1093A000864228BF0446224639462846FFF780FFFA
:1093B000E4E72846FFF79EFF0446DFE784310020FC
:1093C000034610F0010F09D1032013F0020F01D062
:1093D00048F2012013F0040F03D170474FF402400C
:1093E000F3E748F20220F8E74A6B8B6A9A4207D00B
:1093F0000023C0F800350522C0F800251846704744
:109400000120704703464A6B886A824205D2496A46
:109410008A5CC3F81C250120704791F82C0030B9F4
:109420000A6A12F0400F06D10120586170470122EC
:10943000DA61002070470122DA6181F82D2070473F
:1094400084464B6B8A6A934229D24A6AD0F818053F
:10945000D0544B6B01334B638A6A501E834207D052
:1094600093420DD0934211D00120CCF820007047D8
:10947000086A10F0400FF3D10223CCF80032F3E772
:10948000086A10F0400FEDD1012070470B6A13F00D
:10949000400FE9D0022381F82D30002070470120D1
:1094A000704770B58AB004460D46D0F8043113B346
:1094B0000023C0F80431D0F804310193019B012648
:1094C00095F82F30CBB10023C4F82431D4F82421EF
:1094D0000492049AC4F81C31D4F81C210392039A14
:1094E000C4F80831D4F808310293029B002E57D1FA
:1094F00001200AB070BD0026E2E7D4F824315BB148
:109500000023C4F82431D4F824310593059B0123AA
:10951000636185F82F30E9E7D4F81C31FBB10023F3
:10952000C4F81C31D4F81C310693069B6B6B0133D5
:109530006B63D4F824315BB10023C4F82431D4F830
:1095400024310793079B0123636185F82F30CDE712
:1095500029462046FFF756FF0028C7D1C9E7D4F8AF
:109560000831002BC2D00023C4F80831D4F80831E8
:109570000893089BD4F824315BB10023C4F824314C
:10958000D4F824310993099B0123636185F82F30B6
:10959000ACE729462046FFF753FF0028A6D1A8E7ED
:1095A000002385F82D3095F82F300BB10020A0E76F
:1095B00029462046FFF718FF80F0010085F82F00AC
:1095C000F4E7000030B587B004460D462D4B0593F7
:1095D0000023C0F80431D0F804210492049AC0F8A2
:1095E0002431D0F824210392039AC0F81C31D0F81A
:1095F0001C210292029AC0F80831D0F80821019289
:10960000019AC0F800324B6381F82F3001230362C6
:1096100091F82D30012B01D001238360294620468B
:10962000FFF7F0FE2B685BB140F28623AB60AB68BE
:10963000C4F80433002007B030BD059B013B0593FF
:10964000059B002B05DD29462046FFF72AFF002851
:10965000F3D195F82F303BB1D4F8C404C4F8C40456
:1096600070B1FFF7ADFE00E00020059B002BE2DCAF
:109670000023C4F800350523C4F800350320DAE7D9
:109680000320F2E7A086010030B587B004460D46FE
:10969000314B05930023C0F80431D0F80421049223
:1096A000049AC0F82431D0F824210392039AC0F818
:1096B0001C31D0F81C210292029AC0F80831D0F86F
:1096C00008210192019A4B6381F82F308B6A012B9C
:1096D00015D00123C4F800320123236295F82D3000
:1096E000022B01D0012323602B689BB140F286231B
:1096F000AB60AB68C4F80433002007B030BD0B6A20
:1097000013F0400FE5D10223C0F80032E4E7059BD7
:10971000013B0593059B002B05DD29462046FFF7FD
:10972000C0FE0028F3D195F82F303BB1D4F8C40423
:10973000C4F8C40470B1FFF743FE00E00020059BAD
:10974000002BDADC0023C4F800350523C4F800350B
:109750000320D2E70320F2E7A086010070B586B0AF
:1097600005460C460B6833B321462846FFF799FEA1
:10977000002865D194F82F6026B9227B931EDBB2B6
:10978000012B1ED90DF1040C04F10C0EBEE80F00E4
:10979000ACE80F00DEF80030CCF80030002E3ED0F0
:1097A000D5F8C434C5F8C43413F0020F25D0012312
:1097B0008DF8003036E0234940F2BA20FEF7D0FDA4
:1097C000D2E7616AA3699942DCD1E36963626369A4
:1097D000A362236AC3F3401384F82C30002384F877
:1097E0002D30032A04D021462846FFF74DFF27E0FD
:1097F00021462846FFF7E6FE22E013F0040F03D0CF
:1098000002238DF800300DE013F0010F03D0032385
:109810008DF8003006E004238DF8003002E00023CC
:109820008DF80030002384F83030236A13F0040FE1
:1098300002D094F82F301BB12368616868469847BE
:1098400006B070BD1CA3020008B502490248FFF72C
:1098500085FF08BDFC3100200030004008B5FFF74F
:109860003BFB4FF4FA75094C44F001044FF47A4085
:10987000A047013DF7D1FFF734FB40F2DC554FF430
:109880007A40A047013DFAD1E9E700BF60A302009A
:1098900008B50120FFF76AFBFFF7E0FF08B5074BAB
:1098A000044613B10021AFF30080054B1868836AAA
:1098B00003B19847204600F047F800BF00000000C1
:1098C00068A4020070B50D4D0D4C641BA410002659
:1098D000A64209D10B4D0C4C00F038F8641BA410C3
:1098E0000026A64205D170BD55F8043B98470136C5
:1098F000EEE755F8043B98470136F2E7542B002079
:10990000542B0020542B0020582B00200A44914255
:1099100000F1FF3300D1704710B511F8014B03F887
:10992000014F9142F9D110BD02440346934200D148
:10993000704703F8011BF9E7034613F8012B002ACF
:10994000FBD1181A01387047FEE700BFF8B500BF19
:10995000F8BC08BC9E467047F8B500BFF8BC08BC10
:109960009E46704753414144430000000000000000
:109970000338FDD870470000AD740200AB740200DC
:10998000A97402007274745F6C6F675F6261636BCD
:10999000656E64002E2E2F6E5246355F53444B5F2A
:1099A00031372E312E305F646464653536302F6375
:1099B0006F6D706F6E656E74732F6C696272617219
:1099C0006965732F6C6F672F7372632F6E72665F9A
:1099D0006C6F675F66726F6E74656E642E630000F5
:1099E0004261636B656E647320666C757368656451
:1099F00000000000617070001B5B313B33316D0073
:109A000025734C6F67732064726F707065642028D3
:109A100025642925730D0A001B5B306D00000000D2
:109A2000257300003C25733E2025733A200000007A
:109A30000D0A000020253032780000002020200090
:109A40007C000000256300001B5B313B33306D0060
:109A50001B5B313B33326D001B5B313B33336D009D
:109A60001B5B313B33346D001B5B313B33356D0089
:109A70001B5B313B33366D001B5B313B33376D0075
:109A80006572726F720000007761726E696E6700B6
:109A9000696E666F00000000646562756700000013
:109AA000189A0200489A0200F8990200509A02009F
:109AB000589A0200609A0200689A0200709A0200A6
:109AC000789A020000000000809A0200889A020042
:109AD000909A0200989A02006170705F62757474C7
:109AE0006F6E0000534F46544445564943453A2053
:109AF000415353455254494F4E204641494C4544E9
:109B000000000000534F46544445564943453A200F
:109B1000494E56414C4944204D454D4F52592041E4
:109B20004343455353000000415353455254494F5A
:109B30004E204641494C45442061742025733A2506
:109B4000750000004552524F52202575205B257349
:109B50005D2061742025733A25750D0A50432061FC
:109B6000743A20307825303878000000456E642043
:109B70006F66206572726F72207265706F7274000A
:109B8000554E4B4E4F574E204641554C5420617414
:109B900020307825303858006170705F74696D65C9
:109BA000720000002E2E2F6E5246355F53444B5FDD
:109BB00031372E312E305F646464653536302F6363
:109BC0006F6D706F6E656E74732F6C696272617207
:109BD0006965732F7574696C2F6170705F75746936
:109BE0006C5F706C6174666F726D2E6300000000B4
:109BF0002E2E2F6E5246355F53444B5F31372E3138
:109C00002E305F646464653536302F636F6D706F1E
:109C10006E656E74732F6C69627261726965732F01
:109C200062616C6C6F632F6E72665F62616C6C6FE9
:109C3000632E63002E2E2F6E5246355F53444B5FCA
:109C400031372E312E305F646464653536302F65D0
:109C5000787465726E616C2F667072696E74662FAF
:109C60006E72665F667072696E74662E63000000C5
:109C70002E2E2F6E5246355F53444B5F31372E31B7
:109C80002E305F646464653536302F657874657294
:109C90006E616C2F667072696E74662F6E72665F8D
:109CA000667072696E74665F666F726D61742E6342
:109CB0000000000030313233343536373839414214
:109CC000434445462E2E2F6E5246355F53444B5F1C
:109CD00031372E312E305F646464653536302F6342
:109CE0006F6D706F6E656E74732F6C6962726172E6
:109CF0006965732F6D656D6F626A2F6E72665F6D39
:109D0000656D6F626A2E6300736F72746C69737431
:109D1000000000004E52465F5355434345535300E5
:109D20004E52465F4552524F525F5356435F484131
:109D30004E444C45525F4D495353494E4700000035
:109D40004E52465F4552524F525F534F4654444520
:109D5000564943455F4E4F545F454E41424C454442
:109D6000000000004E52465F4552524F525F494E2E
:109D70005445524E414C00004E52465F4552524FA0
:109D8000525F4E4F5F4D454D000000004E52465F02
:109D90004552524F525F4E4F545F464F554E44000E
:109DA0004E52465F4552524F525F4E4F545F53558D
:109DB00050504F52544544004E52465F4552524F08
:109DC000525F494E56414C49445F504152414D000B
:109DD0004E52465F4552524F525F494E56414C4992
:109DE000445F5354415445004E52465F4552524FD2
:109DF000525F494E56414C49445F4C454E4754488A
:109E0000000000004E52465F4552524F525F494E8D
:109E100056414C49445F464C414753004E52465FC1
:109E20004552524F525F494E56414C49445F44415E
:109E3000544100004E52465F4552524F525F4441DA
:109E400054415F53495A45004E52465F4552524F66
:109E5000525F54494D454F55540000004E52465FE5
:109E60004552524F525F4E554C4C00004E52465F89
:109E70004552524F525F464F5242494444454E006C
:109E80004E52465F4552524F525F494E56414C49E1
:109E9000445F4144445200004E52465F4552524F87
:109EA000525F4255535900004E52465F4552524F41
:109EB000525F434F4E4E5F434F554E5400000000DB
:109EC0004E52465F4552524F525F5245534F555284
:109ED000434553004E52465F4552524F525F4D4FDD
:109EE00044554C455F4E4F545F494E495449414C8F
:109EF000495A4544000000004E52465F4552524FB9
:109F0000525F4D555445585F494E49545F4641494B
:109F10004C4544004E52465F4552524F525F4D559C
:109F20005445585F4C4F434B5F4641494C454400B4
:109F30004E52465F4552524F525F4D555445585F01
:109F4000554E4C4F434B5F4641494C454400000041
:109F50004E52465F4552524F525F4D555445585FE1
:109F6000434F4E445F494E49545F4641494C454436
:109F7000000000004E52465F4552524F525F4D4F17
:109F800044554C455F414C52454144595F494E4907
:109F90005449414C495A4544000000004E52465F26
:109FA0004552524F525F53544F524147455F4655B9
:109FB0004C4C00004E52465F4552524F525F41504A
:109FC000495F4E4F545F494D504C454D454E5445A9
:109FD000440000004E52465F4552524F525F464584
:109FE00041545552455F4E4F545F454E41424C459A
:109FF000440000004E52465F4552524F525F494F57
:10A000005F50454E44494E47000000004E52465FA7
:10A010004552524F525F4452565F5457495F455222
:10A02000525F4F56455252554E0000004E52465F09
:10A030004552524F525F4452565F5457495F455202
:10A04000525F414E41434B004E52465F4552524F84
:10A05000525F4452565F5457495F4552525F444ED7
:10A0600041434B004E52465F4552524F525F424C65
:10A07000455F495053505F52585F504B545F5452A4
:10A08000554E4341544544004E52465F4552524F4F
:10A09000525F424C455F495053505F4348414E4EDA
:10A0A000454C5F414C52454144595F4558495354D2
:10A0B000530000004E52465F4552524F525F424C91
:10A0C000455F495053505F4C494E4B5F44495343A1
:10A0D0004F4E4E4543544544000000004E52465FEB
:10A0E0004552524F525F424C455F495053505F506A
:10A0F0004545525F52454A454354454400000000DF
:10A10000556E6B6E6F776E206572726F7220636F23
:10A110006465000000000000149D020001000000C2
:10A12000209D020002000000409D0200030000008C
:10A13000649D020004000000789D020005000000FC
:10A140008C9D020006000000A09D02000700000098
:10A15000B89D020008000000D09D02000900000028
:10A16000E89D02000A000000049E02000B000000AF
:10A170001C9E02000C000000349E02000D00000036
:10A18000489E02000E0000005C9E02000F000000CE
:10A190006C9E020010000000809E02001100000072
:10A1A000989E020012000000A89E0200130000000A
:10A1B000C09E020080000000D49E020081000000CA
:10A1C000F89E020082000000149F0200830000003D
:10A1D000309F020084000000509F020085000000B4
:10A1E000749F0200860000009C9F02009000000007
:10A1F000B49F020091000000D49F02009200000072
:10A20000F49F0200008200000CA002000182000006
:10A210002CA002000282000048A00200008400007E
:10A2200064A002000184000088A0020002840000F3
:10A23000B4A0020003840000DCA002002E2E2F6ECA
:10A240005246355F53444B5F31372E312E305F64B9
:10A250006464653536302F6D6F64756C65732F6E71
:10A260007266782F68616C2F6E72665F6770696FB7
:10A270002E6800002E2E2F6E5246355F53444B5FE2
:10A2800031372E312E305F646464653536302F638C
:10A290006F6D706F6E656E74732F626F6172647331
:10A2A0002F626F617264732E630000000B0C18192B
:10A2B0000D0E0F104750494F54450000000000504C
:10A2C000000300502E2E2F6E5246355F53444B5FD5
:10A2D00031372E312E305F646464653536302F6D32
:10A2E0006F64756C65732F6E7266782F6472697611
:10A2F0006572732F7372632F7072732F6E7266782C
:10A300005F7072732E6300005052530055415254D7
:10A310000000000055415254450000002E2E2F6EC3
:10A320005246355F53444B5F31372E312E305F64D8
:10A330006464653536302F6D6F64756C65732F6E90
:10A340007266782F647269766572732F7372632FE9
:10A350006E7266785F7477692E6300005457490007
:10A360000338FDD870470020202020202020202006
:10A3700028282828282020202020202020202020B5
:10A3800020202020202020881010101010101010E5
:10A390001010101010101004040404040404040429
:10A3A00004101010101010104141414141410101B1
:10A3B000010101010101010101010101010101018D
:10A3C000010110101010101042424242424202029B
:10A3D000020202020202020202020202020202025D
:10A3E0000202101010102000000000000000000009
:10A3F000000000000000000000000000000000005D
:10A40000000000000000000000000000000000004C
:10A41000000000000000000000000000000000003C
:10A42000000000000000000000000000000000002C
:10A43000000000000000000000000000000000001C
:10A44000000000000000000000000000000000000C
:10A4500000000000000000000000000000000000FC
:10A460000000000000000000F42A002000000000AE
:10A47000EC2B0020B42C0020BC2C0020F42B00205E
:04A4800018000000C0
:10A48400B4A202000000000008A3020000000000C3
:10A4940064990200000000005CA3020000000000B8
:10A4A4000CA302000000000014A30200000000003E
:10A4B400F499020000000303D89A0200000000008F
:10A4C400989B020000000000089D020000000000AC
:10A4D400789902000000000084990200E82A002014
:08A4E4005CCDFF7F01000000C8
:10A4EC0000000000FF0000000090D00300000000FE
:10A4FC000000000000000000000000000000000050
:10A50C00000000000000000000000000000000003F
:10A51C00000000000000000000000000000000002F
:10A52C00000000000000000000000000000000001F
:10A53C00000000000000000000000000000000000F
:10A54C000000000000000000000000002572020066
:04A55C000172020086
:040000032000746DF8
:00000001FF
