:020000022000DC
:1070000000000220BD720200CD9F0200E772020064
:10701000E9720200EB720200ED7202000000000053
:10702000000000000000000000000000EF720200FD
:10703000F172020000000000ED9E0200B590020017
:1070400039980200F7720200919002002597020021
:10705000F7720200F7720200A98F0200F7720200B5
:10706000F7720200F7720200F7720200F772020074
:10707000F7720200F7720200F7720200F772020064
:10708000F77202001D9E0200F7720200F772020002
:10709000F7720200F77202009D9B0200F772020075
:1070A000F7720200F7720200F7720200F772020034
:1070B000F7720200F77202000000000000000000FA
:1070C000F7720200F7720200F7720200F772020014
:1070D000F7720200F7720200F7720200F772020004
:1070E000F772020000000000000000000000000035
:1070F00000000000F772020000000000F7720200BA
:10710000000000000000000000000000000000007F
:10711000000000000000000000000000000000006F
:10712000000000000000000000000000000000005F
:10713000000000000000000000000000000000004F
:10714000000000000000000000000000000000003F
:10715000000000000000000000000000000000002F
:10716000000000000000000000000000000000001F
:10717000000000000000000000000000000000000F
:1071800000000000000000000000000000000000FF
:1071900000000000000000000000000000000000EF
:1071A00000000000000000000000000000000000DF
:1071B00000000000000000000000000000000000CF
:1071C00000000000000000000000000000000000BF
:1071D00000000000000000000000000000000000AF
:1071E000000000000000000000000000000000009F
:1071F000000000000000000000000000000000008F
:1072000010B5054C237833B9044B13B10448AFF3E0
:1072100000800123237010BD602B002000000000BF
:10722000C8BA020008B5034B1BB103490348AFF3CA
:10723000008008BD00000000642B0020C8BA0200D6
:10724000A3F5803A704700BF174B002B08BF134BC4
:107250009D46FFF7F5FF00218B460F461348144A61
:10726000121A03F0DDF80E4B002B00D098470D4B9F
:10727000002B00D098470020002104000D000D488D
:10728000002802D00C48AFF3008003F097F82000EC
:10729000290002F0D7FD03F07DF800BF00000800D0
:1072A000000000000000000000000220602B002011
:1072B000F435002000000000000000000649074AE5
:1072C000074B9B1A03DD043BC858D050FBDC01F090
:1072D000C5FCFFF7B9FF000068BB0200E82A0020E8
:1072E000602B0020FEE7FEE7FEE7FEE7FEE7FEE795
:1072F000FEE7FEE7FEE7FEE77047704700B583B0A4
:10730000044B00934023044A00F034F803B05DF8C6
:1073100004FB00BF1D730200802B00200AB3F8B5E8
:107320000F4614460326002503E00E4B01221A7077
:10733000B4B122467919002001F076FF0544241AE1
:107340000028F2D1074B1B7853B14FF47A40064B1B
:1073500043F001039847013EE7D1024B00221A7027
:10736000F8BD70477C2B0020F0AD020008B501F09D
:1073700091FF08BDF0B595B00E4615461C4608466F
:1073800001F072FB0E950F94002410948DF8444088
:1073900012941A9B13932346082208A9304601F041
:1073A0008DFB0A9B0B93BDF82430ADF83030BDF84F
:1073B0002630ADF832308DF835409DF8203003F09E
:1073C0000303012B06D0022B21D0304601F052FBE3
:1073D00015B0F0BD089DC5F395259DF82030C3F389
:1073E000C2038DF83430BDF82040C4F38314082361
:1073F000A2000DEB0301304601F060FB0EAB0093E1
:107400000BAB224602A9284600F058FDDDE7BDF887
:107410002250C5F389159DF82030C3F3C2038DF8BF
:10742000343008272C46082D28BF08243B46224626
:1074300002A9304601F042FB27442D1B0EAB0BAADC
:10744000214602A800F09EFD002DEBD1BDE7000013
:1074500008B5FFF78BFF0421064800F09BFC0028CD
:1074600003DB054B01225A7108BD0449412000F09D
:10747000FFFEF6E750BB0200E82A002004AE02003F
:10748000037813F0040F19D003F00303012B03D08A
:10749000022B0AD0012070470388C3F383130A68C4
:1074A000134402330B60012070474388C3F38913F0
:1074B0000A68134402330B600120704700207047B4
:1074C000002002E001238BB9013009280CDC084BB5
:1074D000D3F81034002BF5D0DB681A79824201D042
:1074E0001B68F7E70023EEE74FF0FF30704700BF5F
:1074F000902C002010B584B02D4C04F5836000F072
:10750000FAFE04F2144000F0F6FEA0680390C0B248
:10751000023004EB8000043006E09DF80C00831C70
:10752000234800EB8300043003A9FFF7A9FF0028DC
:10753000F3D100220BE0039B591C0391DBB2023311
:107540001B4901EB83035B684DF822300132012AAD
:10755000F1D99DF8003003F00303012B16D0022B64
:107560001ED1BDF80640BDF80230C3F389130333C2
:10757000039A02EB930303930E4800F0C1FE10B18F
:107580000B4B039A9A60204604B010BDBDF806402C
:10759000BDF80030C3F38312039B13440393EBE75E
:1075A00005494FF4C27000F063FE0024E4E700BF19
:1075B000902C0020A430002068AE020010B5074BCC
:1075C00000221A70064801F003FA044608B120466A
:1075D00010BD044801F088FAF9E700BF902C0020A4
:1075E000DCBA0200CCAE02000248034BC01AC0084D
:1075F000704700BF50BB0200F0BA020099B110B54D
:107600000446FFF7F1FF002383420AD2074A32F80B
:1076100023102268914201D00133F5E72360002056
:1076200000E0052010BD0020704700BF602B002047
:1076300000B583B0019001A8FFF7E0FF30B9019ACF
:10764000034B53F8320003B05DF804FB0020FAE767
:10765000F0BA0200094B03EBC0030139032909D832
:10766000DFE801F0020A040602207047187970472B
:10767000587970470020704704207047F0BA020024
:1076800070470000034B98685B68984214BF002065
:1076900001207047902C00202DE9F04186B0FFF7C3
:1076A000F1FF002840F02481044692480023C0F8EE
:1076B0001834BFF34F8F83680593DBB2023300EBBE
:1076C0008300043005E0DBB202338A4800EB830319
:1076D000181D05A9FFF7D4FE30B3864BD3F8183434
:1076E00023BB844B5A68059B9A42ECD8814B9A6025
:1076F000FAE0059B591C0591DBB202337D4901EB91
:107700008303596802AB43F822100132012AF0D9F1
:107710009DF8083003F00303022B09D0012B73D02E
:10772000744BD3F81044CEE00022EFE70022EDE7DF
:10773000BDF80A30C3F389163446502E28BF5024B2
:1077400064F38F13ADF80A3004F108016A4801F0C0
:107750005AF9054600283ED001F086F90023082298
:107760000DEB0201284601F093F90599CB43DBB2FA
:1077700001339A00B4EB830F3AD932B1CBB2023362
:107780005C4901EB8303191D00E05C494AB1D7B2A3
:107790004AB1DFF868814AB1E4B2D2B2A21AD4B2D7
:1077A00005E0E7B2F4E74FF00008F4E7002408230F
:1077B0003A46284601F06CF907F10803B8F1000FCA
:1077C00004D022464146284601F062F90336059B63
:1077D00003EB96060596002DA2D0464BD3F8104435
:1077E000D3F81834002B47D0284601F043F976E04F
:1077F000CBB202333F4901EB830108232246043117
:10780000284601F045F9E1E7BDF80820C2F38313EB
:10781000062B28BF062363F38912ADF80820023334
:107820009900354801F0EFF805460028D3D001F063
:107830001BF9002308220DEB0201284601F028F96C
:10784000002408260FE0059B5A1C0592DBB2023388
:10785000284901EB8301334604221144284601F0F4
:1078600017F904360134BDF80830C3F38313A3427B
:10787000E9D8B0E7E3681C684CB1E3685B79002B9A
:10788000F8D023681B68294620469847F2E7284627
:1078900001F0F0F800238DF807300DF1070000F03B
:1078A0008FFC144BD3F8183413B9124B059A9A6015
:1078B0009DF8070000F0B8FC11E023689B682046A3
:1078C0009847E3681C68002CF7D10D4B0D48C01A8F
:1078D000C00800040C4940F0020000F017F8FFF760
:1078E000D1FE80F00104E4B2204606B0BDE8F0818C
:1078F0000024F9E7902C0020DCBA02009C2C002028
:10790000F0BA020020BB0200B4AE02002DE9F04143
:1079100082B005460E4600238DF807300DF10700B2
:1079200000F04EFC374B5C689B681B1B03F58073B3
:1079300011E0344F07F21C480121404600F0C5FC1D
:10794000FFF7D8FD0146404600F0BFFCBB687A68EF
:107950009B1A03F58073012BEBD90022012363F3FB
:10796000010242F004026FF38912264F7968CBB20C
:10797000023307EB83035A60023179609DF80700F8
:1079800000F052FC4FEA1548002107F21C4000F0BD
:107990007CFC80F31007FFF727FE80452CD2631C88
:1079A000DBB248EA0747174A023302EB83035F6002
:1079B000E4B2023402EB8404237965F3C503237136
:1079C000A3886FF38913A380636866F39F236360C2
:1079D0002379012161F301032371DBB26FF3820389
:1079E000237113781BB1FFF757FE0028FBD1FFF777
:1079F00047FE02B0BDE8F081034940F2A91000F053
:107A000037FCCCE7902C002068AE02002DE9F04155
:107A100082B005460E46019200238DF803300DF129
:107A2000030000F0CDFB3F4B5C689B681B1B03F51C
:107A3000807311E03B4F07F21C480121404600F0E3
:107A400044FCFFF757FD0146404600F03EFCBB6892
:107A50007A689B1A03F58073022BEBD9002201236D
:107A600063F3010242F0040263F389122D48416876
:107A7000CBB2023300EB83035A60033141609DF8BF
:107A8000030000F0D1FBA01C00236BB9C2B202A915
:107A900001EB830151F8047C911C224A02EB810224
:107AA000576001330130F0E72F0C00211E4800F031
:107AB000ECFB80F31008FFF797FD87422CD2631C84
:107AC000DBB247EA0847174A023302EB83035F60E1
:107AD000E4B2023402EB8404237965F3C503237115
:107AE000A388012161F38913A380636866F39F2350
:107AF0006360237961F301032371DBB26FF38203C7
:107B0000237113781BB1FFF7C7FD0028FBD1FFF7E6
:107B1000B7FD02B0BDE8F081044940F2A91000F0C1
:107B2000A7FBCCE7902C0020AC30002068AE020010
:107B30002DE9F04184B005460E46029203930023DE
:107B40008DF807300DF1070000F03AFB404B5C6800
:107B50009B681B1B03F5807311E03D4F07F21C4827
:107B60000121404600F0B1FBFFF7C4FC014640464E
:107B700000F0ABFBBB687A689B1A03F58073032B9C
:107B8000EBD90022012363F3010242F00402022335
:107B900063F389122E484168CBB2023300EB8303B2
:107BA0005A60043141609DF8070000F03DFBA01CC5
:107BB0000023012B0DD8C2B204A901EB830151F8B7
:107BC000087C911C224A02EB81025760013301308C
:107BD000EFE72F0C00211F4800F057FB80F310083F
:107BE000FFF702FD87422DD2631CDBB247EA08474C
:107BF000174A023302EB83035F60E4B2023402EB04
:107C00008404237965F3C5032371A388022161F3FA
:107C10008913A380636866F39F236360237901213E
:107C200061F301032371DBB26FF3820323711378D5
:107C30001BB1FFF731FD0028FBD1FFF721FD04B098
:107C4000BDE8F081044940F2A91000F011FBCBE738
:107C5000902C0020AC30002068AE02002DE9F041ED
:107C600086B005460E46019202930C9B03930D9B32
:107C700004930E9B059300238DF803300DF1030050
:107C800000F09EFA404B5C689B681B1B03F58073F9
:107C900011E03D4F07F21C480121404600F015FB62
:107CA000FFF728FC0146404600F00FFBBB687A68EE
:107CB0009B1A03F58073062BEBD90022012363F393
:107CC000010242F00402052363F389122E48416841
:107CD000CBB2023300EB83035A60073141609DF859
:107CE000030000F0A1FAA01C0023042B0DD8C2B29F
:107CF00006A901EB830151F8147C911C224A02EB86
:107D00008102576001330130EFE72F0C00211F483B
:107D100000F0BBFA80F31008FFF766FC87422DD213
:107D2000631CDBB247EA0847174A023302EB8303BE
:107D30005F60E4B2023402EB8404237965F3C50387
:107D40002371A388052161F38913A380636866F317
:107D50009F2363602379012161F301032371DBB267
:107D60006FF38203237113781BB1FFF795FC002892
:107D7000FBD1FFF785FC06B0BDE8F081044940F275
:107D8000A91000F075FACBE7902C0020AC30002051
:107D900068AE020010B50446FFF792FBB0F1FF3F5A
:107DA0000ED0E36818710A4BD3F810344BB1DA687F
:107DB000E36812681A60064BD3F81034DB681C6065
:107DC00010BD034BC3F81044E36800221A60F7E7C4
:107DD000902C002010B5094BD3F8104401221A70E2
:107DE00008E0E36801225A7123685B6820469847DF
:107DF000E3681C68002CF4D110BD00BF902C00205B
:107E000070B582B004460D46C388A3B9217A05290E
:107E10000FD0637ABBB9227A104B53F8226000214D
:107E2000A088FFF705FC034632460D49284600F0BE
:107E300043FB02B070BD0B4A00920B4A0B49284627
:107E400000F03AFBE2E7A088FFF704FC084B53F888
:107E500020200849284600F02FFBDCE7A4AF0200F1
:107E600004AF0200F8AE0200D8AE0200E0AE02009D
:107E700080AF020000AF020010B50C46037A052B5C
:107E80000FD0437A3BB90A49204600F015FB204643
:107E900000F0FEFA10BD074A0749204600F00CFB2F
:107EA000F1E7002AF3D00249204600F005FBEEE797
:107EB00010AF0200F8AE020000AF02002DE9F0435F
:107EC00085B080460D4617461E460C9C94F80C90D3
:107ED0000023237321463046FFF792FF062F09D86F
:107EE000DFE807F00412181F2833400041462046FF
:107EF00000F0E2FA002221463046FFF7BDFF84F889
:107F00000C9005B0BDE8F0832A684146204600F099
:107F1000D3FAEFE76B682A684146204600F0CCFAB6
:107F2000E8E7AB6800936B682A684146204600F09A
:107F3000C3FADFE7EB680193AB6800936B682A68CC
:107F40004146204600F0B8FAD4E72B690293EB686B
:107F50000193AB6800936B682A684146204600F0A5
:107F6000ABFAC7E76B6903932B690293EB68019344
:107F7000AB6800936B682A684146204600F09CFA83
:107F8000B8E70000082900D970472DE9F8430746F3
:107F90000E4690461D4693F80C9000241C7319461B
:107FA0001046FFF72DFF04E01B49284600F084FA35
:107FB0000134072C07D8B442F6D23A5D1749284657
:107FC00000F07AFAF4E71649284600F075FA002422
:107FD00005E02E221349284600F06EFA0134072CE2
:107FE00010D8B44209D23A5D7E2AF2D80E4BD35C47
:107FF00013F0970FEED12E22ECE70C49284600F043
:108000005BFAEBE7012229464046FFF735FF85F88A
:108010000C90BDE8F88300BF1CAF020014AF020053
:1080200020AF020024AF02008DB902000CAF0200A5
:1080300082B001238DF807309DF80730134B18608C
:1080400059609A6044F20103984213D044F202034B
:10805000984207D10D4BDA60DA6812689A61DA68E3
:108060005268DA6172B69DF80730002BFBD162B618
:1080700002B07047054B1A611A6992685A611A6911
:1080800012689A611A695268DA61EBE74831002098
:108090002DE9F04184B004460E46154672B6FFF74E
:1080A00099FEFFF7F9FA0028FBD144F201039C4244
:1080B0003BD010D8012C1FD041F201039C4250D17B
:1080C0002E482F4BC01AC00800042E4940F0010072
:1080D000FFF71CFC1AE044F202039C4241D12748FE
:1080E000274BC01AC00800042B686A68264940F074
:1080F0000100FFF71DFD09E02048214BC01AC00810
:108100000004224940F00100FFF700FC204BD3F8A7
:10811000F03013F0010F00D000BE2A463146204651
:10812000FFF786FF04B0BDE8F081144F144BFF1A2F
:10813000FF083F0447F00107D5F80880404600F0EB
:108140003BFD03466A682968029601910092424607
:1081500010493846FFF782FD0F493846FFF7D6FB36
:10816000D4E70648064BC01AC008000432460B4943
:1081700040F00100FFF74AFCC8E700BF20BB020047
:10818000F0BA0200E4AF020008B00200C4AF02007F
:1081900000ED00E024B002004CB0020060B002002C
:1081A000EFF30583C3F308033BB9EFF3148313F034
:1081B000010F0CBF01200020704701207047000014
:1081C00038B50446FFF7ECFF01281CD1EFF310820D
:1081D00072B6114B9B68DBB90F4901238B600F4BC3
:1081E000D3F880000E4D28400860C3F88050D3F8C3
:1081F000840048604FF0FF31C3F8841000232370DF
:1082000002B962B638BD0749432000F031F8DDE716
:1082100001232370F4E700BF6831002000E100E093
:10822000FC06FFBD84B0020010B50446FFF7B8FF9E
:10823000012811D10B4B9B686BB164B9EFF310812E
:1082400072B6084B1868084A1060586850600022DF
:108250009A6001B962B610BD0449512000F008F8D7
:10826000E8E700BF6831002000E100E084B00200D0
:1082700000B583B0009001916A46002144F20200EB
:10828000FFF706FF03B05DF804FB034653E8000F59
:108290000A4643E8002C9CF0000FF7D170470346D4
:1082A00053E8002F42EA010043E8000C9CF0000F65
:1082B000F6D17047034653E8000F00EA010243E895
:1082C000002C9CF0000FF6D17047034653E8002FB6
:1082D00002EB010043E8000C9CF0000FF6D1704760
:1082E000034653E8002FA2EB010043E8000C9CF08A
:1082F000000FF6D1704708B50121FFF7D0FF08BD88
:1083000008B50021FFF7D6FF08BD000038B50C46C0
:10831000054620B1EB68288A00FB043038BD0249CD
:10832000E820FFF7A5FFF5E7D0B0020038B50C460E
:10833000054630B1E868241A288AB4FBF0F0C0B2D0
:1083400038BD0249F520FFF793FFF3E7D0B00200F4
:1083500000283DD010B50446036873B163688BB143
:10836000A368ABB1E368CBB1238AEBB1A2686368C1
:10837000D21AD2B221680B6022E01649FF20FFF723
:1083800077FFEBE713494FF48070FFF771FFE7E7E2
:10839000104940F20110FFF76BFFE3E70D494FF47E
:1083A0008170FFF765FFDFE70A4940F20310FFF72E
:1083B0005FFFDBE721680A68501C086013701A46EB
:1083C000531EDBB2002AF5D123680020187110BDBE
:1083D0000E207047D0B0020030B583B00446E8B13B
:1083E00000238DF807300DF10700FFF7E9FE226842
:1083F000136861688B4217D9591E116013F8011C6C
:108400002046FFF783FF0546A368226811685B1AC0
:10841000DBB21179994208D2137106E006494FF494
:108420009270FFF725FFDBE700259DF80700FFF7B7
:10843000FBFE284603B030BDD0B0020070B582B05C
:108440000C460646B0B1DCB100238DF807300DF1C3
:108450000700FFF7B5FE33681D686A1C1A602146E5
:108460003046FFF763FF28709DF80700FFF7DCFE3A
:1084700002B070BD054940F24710FFF7F9FEE2E790
:1084800002494FF4A470FFF7F3FEDDE7D0B002001D
:1084900010B5044640B1A2682AB163692168206919
:1084A00098470023A36010BD02493120FFF7E0FE8A
:1084B000F1E700BF14B102000EB430B582B0059DE3
:1084C0000446A0B16369BBB12368D3B16368EBB163
:1084D00045B10023019306AB019301AA294620462A
:1084E00000F02AF902B0BDE8304003B070470A49F5
:1084F0004220FFF7BDFEE5E707494320FFF7B8FE3E
:10850000E2E705494420FFF7B3FEDFE702494520D3
:10851000FFF7AEFEDCE700BF14B1020038B5044639
:108520000D460A2909D02268A368591CA160D554B8
:10853000A26863689A4204D238BD0D21FFF7EEFFAE
:10854000F1E72046FFF7A4FFF6E700002DE9F84F1A
:1085500082460F4615461E46DDF828900B9A0B46BC
:108560004FF0010803E0B3FBF5F308F10108AB425B
:10857000F9D2B04500D2B04612F0010B13D1B9F1D7
:10858000000F10D012F0020F0FD086B1202405E0AA
:1085900009F1FF3921465046FFF7C0FFB9F1000F3E
:1085A00001D0C145F4D8012406E02024F6E73024A8
:1085B000F4E7013E05FB04F4012EFAD8B7FBF4F30F
:1085C0009D42F7D9B7FBF4F304FB13770E4AD15C55
:1085D0005046FFF7A3FF2346B4FBF5F4AB42F1D2BC
:1085E000BBF1000F02D0B9F1000F07D1BDE8F88F41
:1085F00009F1FF3920215046FFF790FFB9F1000F34
:10860000F4D0C145F4D8F1E794B102002DE9F04768
:1086100082B080460F46144699460A9EDDF82CA08B
:1086200081EAE17CACEBE17C012502E09CFBF4FCFF
:1086300001356445FADD4D4500D24D462EB1002F7F
:1086400002DB1AF0040F00D0013E1AF0020F02D034
:10865000B9F1000F03D01AF0010F00D1CEB9002FED
:108660001CDB1AF0040F1FD10AF00303022B20D0E9
:10867000CDF804A000964B46224639464046FFF707
:1086800065FF02B0BDE8F087013E20214046FFF7BC
:1086900045FF002EE3D0AE42F6D8E0E77F422D2121
:1086A0004046FFF73BFFDFE72B214046FFF736FF51
:1086B000DAE7B9F1000FDBD12EB9D9E7013E30215D
:1086C0004046FFF72BFF002ED2D0AE42F6D8CFE7C0
:1086D000F8B506460D46144613F001070ED1F1B168
:1086E000084601F0CDFE074619E001350137304656
:1086F000FFF714FF29780029F7D106E00027F9E7F2
:10870000013C20213046FFF709FFBC4201D9002C73
:10871000F6D1F8BD013C20213046FFF7FFFEBC42F8
:1087200001D9002CF6D129780029F2D00135304644
:10873000FFF7F4FEF7E70000F0B583B00C461646ED
:10874000054648B16B696BB12B688BB16B68ABB1F7
:10875000002C40F08980D8E06F4940F25220FFF7AA
:1087600087FDEFE76C494FF41570FFF781FDEBE7EC
:10877000694940F25520FFF77BFDE7E7664940F283
:108780005620FFF775FDE3E70027012203E047F0DD
:108790000107013482B121782D29F8D0302903D086
:1087A0002B2905D00022F5E747F002070134F1E755
:1087B00047F004070134EDE72A290CD02178A1F114
:1087C0003000C0B209280CD8013402EB820201EB60
:1087D0004202303AF0E73368191D31601B681A44D1
:1087E000013423782E2B02D00023217810E00134AD
:1087F00000232178A1F13000C0B20928F5D8013456
:1088000003EB830301EB4303303BF2E714F8011F52
:108810006C29FBD06829F9D025296FD020D378297D
:108820001ED858291CD35839202919D8DFE801F05F
:108830003C1818181818181818181811261818188D
:10884000182618181818181850181847183118181A
:108850003C0033681A1D326019782846FFF75EFE27
:1088600001342378002B4ED014F8011B00294AD084
:10887000252989D02846FFF751FEF2E73168081D07
:1088800030600968019700920A222846FFF7BEFE71
:10889000E6E73168081D30600968019700920A22F6
:1088A0002846FFF753FEDBE73168081D3060096892
:1088B0000197009210222846FFF748FED0E7316862
:1088C0000B1D33603B4609682846FFF701FFC7E7E9
:1088D00033681A1D32601F6830212846FFF71EFEDC
:1088E00078212846FFF71AFE0023019308230093FE
:1088F000102239462846FFF729FEB1E725212846F0
:10890000FFF70CFEACE72B7B0BB903B0F0BD28469C
:10891000FFF7BEFDF9E700BF50B102002DE9F04FAF
:1089200083B0884601929B469DF830900446D0B1B2
:10893000B4F806A0637903FB0AFAAAF1040ADA453F
:1089400016D9E7880BF10403B3FBF7F607FB1633E0
:10895000019A156805EB0B02524501D9AAEB0B05EC
:10896000019A15600BE01949B620FFF781FCDFE79B
:108970001649C420FFF77CFCE3E72468013E002E83
:10898000FBD1A7EB030AAA4528BFAA46B3460DE0D0
:1089900052460146184601F035FD2468A5EB0A054C
:1089A000D344BA46AF4228BFAA4633465DB108EB6E
:1089B0000B0023440433B9F1000FE9D052461946A5
:1089C00001F020FDE9E703B0BDE8F08FA4B102009B
:1089D00008B5FFF7BDFC08BDF8B501464679701E25
:1089E0000A46002301E0126801338342FBD3176873
:1089F000002405E00D683846FFF720FD01342946C4
:108A0000A642F7D8F8BD2DE9F8430746048AA4F139
:108A1000040841440331B1FBF8F8FFF7DDFC0646DA
:108A2000F8B10025057101234371043CC4805FFA4D
:108A300088F808F1FF3807608146454511D238466D
:108A4000FFF7CAFC044640B1737901337371C9F86A
:108A50000000076001358146EFE73046FFF7BCFFB5
:108A600026463046BDE8F88308B501210430FFF7FB
:108A70002CFC08BD10B5044601210430FFF730FC82
:108A800010F0FF0F00D010BD2046FFF7A5FFFAE75A
:108A900010B584B0144603920022009203AAFFF797
:108AA0003DFF039BA34201D104B010BD0249F62053
:108AB000FFF7DEFBF8E700BFA4B1020010B584B0F9
:108AC000144603920122009203AAFFF727FF039B9B
:108AD000A34201D104B010BD02494FF48070FFF7EA
:108AE000C7FBF7E7A4B102008268002393608268A5
:108AF0001361826853618268D360826853608268C0
:108B00001360704738B50C46054638B15CB12C602F
:108B100023686B60626893420AD038BD06495020D2
:108B2000FFF7A6FBF2E704495120FFF7A1FBEEE7B0
:108B300000236B60F1E700BFE8B1020010B5044606
:108B400058B1236873B1636833B1226891680B44EC
:108B50006360526893420AD010BD06496320FFF754
:108B600087FBEEE703496420FFF782FBEBE7002376
:108B70006360F1E7E8B102000E4A02F594718A429F
:108B800015D2A1EB020C4FEADC7303EBEC035B1094
:108B900002EBC30C52F83330834201D96146EEE751
:108BA00002D20CF10802EAE7DCF80400704700206A
:108BB000704700BF54B6020008B5FFF7DDFF00B1F3
:108BC00008BD0148FCE700BF40B602004FF08053EB
:108BD000D3F830310D2B01D00020704701207047B1
:108BE0004FF08053D3F830310D2B01D00020704767
:108BF000012070474FF08053D3F830310D2B01D056
:108C000000207047012070474FF08053D3F8302187
:108C1000D3F834310D2A01D000207047012B01D840
:108C20000020704701207047024BD3F80034002B1E
:108C3000FAD0704700E0014008B5034BC3F80405C3
:108C4000FFF7F2FF08BD00BF00E00140014B024A00
:108C50001A607047F02A00200090D00338B5FFF763
:108C6000B5FF40B14FF080430022C3F80C21C3F898
:108C70001021C3F83825FFF7B3FF002846D04FF086
:108C80008052D2F80414454BC3F82015D2F80814CA
:108C9000C3F82415D2F80C14C3F82815D2F8101410
:108CA000C3F82C15D2F81414C3F83015D2F81814E0
:108CB000C3F83415D2F81C14C3F84015D2F82014A8
:108CC000C3F84415D2F82414C3F84815D2F8281470
:108CD000C3F84C15D2F82C14C3F85015D2F8301440
:108CE000C3F85415D2F83414C3F86015D2F8381408
:108CF000C3F86415D2F83C14C3F86815D2F84014D0
:108D0000C3F86C15D2F84424C3F87025FFF772FF3E
:108D100060B14FF08043D3F8003413F0010F05D059
:108D20004FF080436FF00102C3F80024FFF76CFF9F
:108D300038B14FF01023D3F808224FF08043C3F826
:108D400058254FF01023D3F80032002B08DB4FF0EA
:108D50001023D3F80432002B02DBFFF777FF38BD76
:108D60000120FFF769FF4FF010241225C4F80052CC
:108D7000FFF75AFFC4F80452FFF756FF0020FFF731
:108D80005BFFBFF34F8F0649CA6802F4E062054BF0
:108D90001343CB60BFF34F8F00BFFDE700C000401F
:108DA00000ED00E00400FA05034B034493F95A0078
:108DB00000F03F00704700BF74310020034B0344B4
:108DC00093F95A00C0F38110704700BF743100203E
:108DD00082B08446114B93E8030002AB03E9030021
:108DE000604600230BE002AA02EB830252F8082C33
:108DF000D2F8201540F8041BC2F820150133012BCE
:108E0000F1D90023012B04D85CF8232022B90133C7
:108E1000F8E7002002B070470120FBE7BCB7020072
:108E20002DE9F8430646B5E04FF0FF3352E000234A
:108E300050E05A494FF4F670FFF71AFA50E0234613
:108E40004FF0A04251E04FF0030958E04FF0FF33DC
:108E50005BE0002359E051494FF4F670FFF708FA40
:108E600059E023464FF0A0425AE04FF0FF336BE049
:108E7000002369E049494FF4F670FFF7F9F969E01A
:108E800021464FF0A0426AE0B8F1010F78D1414687
:108E9000204698470135032D78D8414B2B4493F950
:108EA0005A30B3F1FF3FF5D02846FFF77DFF044667
:108EB000C20800F0070101238B40B25C1342E9D0E5
:108EC0002846FFF77BFF80466309ADD0012BAED16A
:108ED00040F2FF3304F01F02D34013F0010FA8D07B
:108EE0001F2CACD904F01F032E4A03F5E07352F88F
:108EF0002370C7F30147022FA5D04FF00209630981
:108F0000A4D0012BA5D140F2FF3304F01F02D340BF
:108F100013F0010F9FD01F2CA3D904F01F03214A87
:108F200003F5E07352F8231021F4403142F8231086
:108F300052F8231041EA094142F82310630994D002
:108F4000012B95D140F2FF3304F01F02D34013F000
:108F5000010F8FD01F2C93D904F01F01114A012358
:108F60008B40C2F820350E4B1A1992F9302053F875
:108F70002230002B8ED0B8F1030F88D0022F83D07F
:108F8000032F87D1B8F1020F84D180E73046FFF775
:108F90001FFF08B100257EE7BDE8F8837CB702001B
:108FA000743100200003005070B586B00025049590
:108FB000059501204FF48073294603E040000433F7
:108FC0009BB20131072912D803F1804202F5C04259
:108FD0001468012CF2D12B4CD4F804432042EDD07C
:108FE0000024146012680092009A0543E6E7254BBE
:108FF000D3F87C31012B06D015F0FF0F3BD1002DAB
:109000003CDB06B070BD1F4A0023C2F87C31D2F8A9
:109010007C210192019A45F000451B4902AA03C92F
:1090200082E8030004A80BE006AA02EB830252F8D0
:10903000102CD2F8201540F8041BC2F8201501337B
:10904000012BF1D9D8E776000134072CD7D82E426E
:10905000F9D00C4B04F5A27253F82200C0F305209E
:1090600053F82210C1F30141084B53F82430002B70
:10907000E9D09847E7E701260024E6E704A8FFF7D0
:10908000CFFEBEE700600040BCB702007431002094
:1090900008B5064B1B681BB1044B1B68984708BDFD
:1090A00003495120FFF7E4F8F6E700BFDC31002068
:1090B000C4B7020008B50021084601F017F83F23A5
:1090C00072B683F3118862B601F078F828B14FF0D8
:1090D000E0234FF08052C3F8042D002383F311885E
:1090E000BFF34F8F08BD0000BFF34F8F0549CA681B
:1090F00002F4E062044B1343CB60BFF34F8F00BF19
:10910000FDE700BF00ED00E00400FA050369C26856
:10911000934204D88068801A0344581E70479B1AF3
:10912000581E70472DE9F843044688461646C56820
:109130008768A7EB0509914507D94068284401F0E5
:1091400061F93544E560BDE8F88340684A46284443
:1091500001F058F9ED1B35442A4608EB0901606817
:1091600001F050F9E560EEE72DE9F8430646884640
:109170001746C5684FF0000918E0641B621EB3680B
:109180005C1B944228BF1446BC4228BF3C46706812
:1091900022464146284401F035F9A144A0443F1B32
:1091A0002544B368AB4209D0F5604FB13469A5429C
:1091B000E3D3B268641B1444621EE0E70025F3E7C2
:1091C0004846BDE8F883000010B5114C0223236126
:1091D0006361104AA261104BE3614FF40073236294
:1091E0000023A3626362E362A2640C4AE264102279
:1091F0002265A3656365E3650949E01D01F038F95F
:109200000849204601F034F92023A37110BD00BFA6
:10921000E43100201CB802006C3200205C320020D7
:1092200028B802002CB80200F8B50F461646184BB5
:10923000451C05EB450503EBC50500EB400003EBC2
:10924000C000C46A012C11D0022C1CD014B100241F
:109250002046F8BD2846FFF759FF8642F8D8324627
:1092600039462846FFF75EFF3446F1E72846FFF708
:109270004DFF3446864228BF0446224639462846DA
:10928000FFF750FFE4E72846FFF76EFF0446DFE7ED
:10929000E431002008B5FFF797FF08BD034610F042
:1092A000010F09D1032013F0020F01D048F2012071
:1092B00013F0040F03D170474FF40240F3E748F274
:1092C0000220F8E74A6B8B6A9A4207D00023C0F865
:1092D00000350522C0F80025184670470120704768
:1092E00003464A6B886A824205D2496A8A5CC3F89F
:1092F0001C250120704791F82C0030B90A6A12F041
:10930000400F06D10120586170470122DA61002028
:1093100070470122DA6181F82D20704784464B6B3B
:109320008A6A934229D24A6AD0F81805D0544B6B06
:1093300001334B638A6A501E834207D093420DD09B
:10934000934211D00120CCF820007047086A10F039
:10935000400FF3D10223CCF80032F3E7086A10F093
:10936000400FEDD1012070470B6A13F0400FE9D098
:10937000022381F82D30002070470120704770B51E
:109380008AB004460D46D0F8043113B30023C0F868
:109390000431D0F804310193019B012695F82F3058
:1093A000CBB10023C4F82431D4F824210492049AC8
:1093B000C4F81C31D4F81C210392039AC4F8083174
:1093C000D4F808310293029B002E57D101200AB035
:1093D00070BD0026E2E7D4F824315BB10023C4F865
:1093E0002431D4F824310593059B0123636185F86A
:1093F0002F30E9E7D4F81C31FBB10023C4F81C314D
:10940000D4F81C310693069B6B6B01336B63D4F865
:1094100024315BB10023C4F82431D4F824310793FC
:10942000079B0123636185F82F30CDE7294620464D
:10943000FFF756FF0028C7D1C9E7D4F80831002B41
:10944000C2D00023C4F80831D4F808310893089B2F
:10945000D4F824315BB10023C4F82431D4F824318A
:109460000993099B0123636185F82F30ACE72946F6
:109470002046FFF753FF0028A6D1A8E7002385F870
:109480002D3095F82F300BB10020A0E7294620465B
:10949000FFF718FF80F0010085F82F00F4E70000C7
:1094A00030B587B004460D462D4B05930023C0F818
:1094B0000431D0F804210492049AC0F82431D0F881
:1094C00024210392039AC0F81C31D0F81C21029287
:1094D000029AC0F80831D0F808210192019AC0F828
:1094E00000324B6381F82F300123036291F82D3055
:1094F000012B01D00123836029462046FFF7F0FEAF
:109500002B685BB140F28623AB60AB68C4F80433D0
:10951000002007B030BD059B013B0593059B002B48
:1095200005DD29462046FFF72AFF0028F3D195F8EC
:109530002F303BB1D4F8C404C4F8C40470B1FFF7B1
:10954000ADFE00E00020059B002BE2DC0023C4F808
:1095500000350523C4F800350320DAE70320F2E7DD
:10956000A086010030B587B004460D46314B059307
:109570000023C0F80431D0F804210492049AC0F802
:109580002431D0F824210392039AC0F81C31D0F87A
:109590001C210292029AC0F80831D0F808210192E9
:1095A000019A4B6381F82F308B6A012B15D0012370
:1095B000C4F800320123236295F82D30022B01D02C
:1095C000012323602B689BB140F28623AB60AB681C
:1095D000C4F80433002007B030BD0B6A13F0400F0D
:1095E000E5D10223C0F80032E4E7059B013B059377
:1095F000059B002B05DD29462046FFF7C0FE00280D
:10960000F3D195F82F303BB1D4F8C404C4F8C404A6
:1096100070B1FFF743FE00E00020059B002BDADC71
:109620000023C4F800350523C4F800350320D2E731
:109630000320F2E7A086010070B586B005460C460F
:109640000B6833B321462846FFF799FE002865D101
:1096500094F82F6026B9227B931EDBB2012B1ED912
:109660000DF1040C04F10C0EBEE80F00ACE80F0085
:10967000DEF80030CCF80030002E3ED0D5F8C434EF
:10968000C5F8C43413F0020F25D001238DF8003043
:1096900036E0234940F2BA20FEF7EAFDD2E7616ADC
:1096A000A3699942DCD1E36963626369A362236AB7
:1096B000C3F3401384F82C30002384F82D30032AA0
:1096C00004D021462846FFF74DFF27E021462846D3
:1096D000FFF7E6FE22E013F0040F03D002238DF81B
:1096E00000300DE013F0010F03D003238DF800309C
:1096F00006E004238DF8003002E000238DF80030EE
:10970000002384F83030236A13F0040F02D094F859
:109710002F301BB1236861686846984706B070BD5A
:1097200034B8020008B502490248FFF785FF08BDBA
:109730006C3400200030004010B5044640B1084BA6
:109740001B7953B9064B1C6001221A71002010BD11
:109750000449A420FEF78CFDF1E78520F7E700BF60
:10976000A834002078B8020008B50D4B1B7953B11E
:109770000C4B1B6813F0010F0AD04FF080430122FD
:10978000C3F8182508BD0849BD20FEF771FDEFE7B5
:10979000044BC02283F8002301221A60EDE700BFCA
:1097A000A834002000E100E078B8020000B583B0E2
:1097B0000C4B1B7983B14FF080430022C3F8042186
:1097C000D3F804210192019A0222C3F80423012252
:1097D0009A6003B05DF804FB0349EA20FEF748FDF8
:1097E000E9E700BFA834002078B8020000B583B0D4
:1097F0000F4B1B79BBB14FF080430222C3F8082303
:109800000022C3F80421D3F804210192019A012215
:10981000DA604FF08043D3F8183413F4803FF8D166
:1098200003B05DF804FB0349F720FEF721FDE2E7F2
:10983000A834002078B8020000B583B04FF0804310
:10984000D3F8003173B14FF080430020C3F800011A
:10985000D3F800210092009A0122C3F808230D4B8F
:109860001B6898474FF08043D3F804317BB14FF029
:1098700080430022C3F80421D3F804210192019A05
:109880000222C3F80823034B1B680120984703B04A
:109890005DF804FBA83400200268134600E01B6852
:1098A00013B18B42FBD101E00A60016070470346AF
:1098B000006808B102681A607047000008B500F03F
:1098C00051F920B9074BD3F800342BB108BD064934
:1098D0007B20FEF7CDFCF5E7FFF788FF034B002266
:1098E0009A70F3E700000140C4B80200B0340020D1
:1098F00000B1704708B5064B01225A7002E0436878
:10990000002098470348FFF7D2FF0028F7D108BD91
:10991000B0340020B834002010B5044610B1012C3A
:109920000DD010BD0C4B01225A7002E0436800209C
:1099300098470A48FFF7BBFF0028F7D1EFE7064B2F
:1099400001229A7002E04368012098470448FFF71B
:10995000AEFF0028F7D1E4E7B0340020B83400208F
:10996000C034002010B5104B1B784BB185240F4B31
:10997000D3F8003413B10C4B01229A70204610BD6D
:10998000094B00229A605A601A61DA600848FFF7B2
:10999000D3FE044600F0E6F818B1034B01221A701A
:1099A000E5E7FFF7E1FEF8E7B034002000000140F2
:1099B0001999020010B582B00446224B1B78D3B12E
:1099C000204B9B78E3B114B16368012098470023D2
:1099D0008DF807300DF10700FEF7F2FB194AD36846
:1099E0000133D3609DF80700FEF71EFC154BDB68C2
:1099F0000BB302B010BD1449F620FEF739FCDFE7C7
:109A000000238DF807300DF10700FEF7D9FB1CB1DC
:109A100021460E48FFF740FF0A4BDB6843B1094A75
:109A2000D3680133D3609DF80700FEF7FDFBDDE747
:109A3000FFF7BCFEF3E704494FF48970FEF718FC0A
:109A4000D7E700BFB0340020C4B80200C034002003
:109A500000B583B0144B1B78B3B1134BDB68CBB1AB
:109A600000238DF807300DF10700FEF7A9FB0E4B20
:109A7000DA68013ADA60DB6893B19DF80700FEF717
:109A8000D3FB03B05DF804FB084940F21710FEF762
:109A9000EFFBE2E705494FF48C70FEF7E9FBDFE7E7
:109AA000FFF70CFFE9E700BFB0340020C4B80200A4
:109AB00000B583B001280ED0032824D010B103B024
:109AC0005DF804FB174B0122C3F88020BFF34F8FD2
:109AD000BFF36F8FF3E700238DF807300DF1070018
:109AE000FEF76EFB104B1B7853B10F4BDA68013257
:109AF000DA6001229A709DF80700FEF795FBDEE719
:109B0000FFF730FFF1E7084B1B7823B1FFF72CFE7E
:109B1000FFF79EFFD3E7054940F25220FEF7A8FB6E
:109B2000F4E700BF00E100E0B0340020C4B8020058
:109B300008B50A4B1B785BB100F014F8034628B94E
:109B40004FF08043D3F81834C3F30043184608BDE0
:109B5000034940F22510FEF78BFBEDE7B0340020FF
:109B6000C4B80200014B1878704700BFC43400200D
:109B700000B583B008496846FEF7C4FF05E01A68DF
:109B8000586890476846FEF7D9FF019B002BF6D135
:109B900003B05DF804FB00BF18B9020008B5FFF779
:109BA000E7FF08BD4FF0A0430322C3F80C27C3F81A
:109BB0001027C3F87027C3F87427C3F87827C3F8B1
:109BC0007C27704710F0010F21D14FF0A0434FF0D8
:109BD0008052C3F80C2510F0020F1FD14FF0A043A4
:109BE0004FF00052C3F80C2510F0040F1DD14FF0B8
:109BF000A0434FF08042C3F80C2510F0080F1BD192
:109C00004FF0A0434FF00042C3F80C2570474FF0CF
:109C1000A0434FF08052C3F80825DCE74FF0A04383
:109C20004FF00052C3F80825DEE74FF0A0434FF095
:109C30008042C3F80825E0E74FF0A0434FF0004210
:109C4000C3F8082570470000F8B5074619BB4FF068
:109C5000A0430822C3F80C253809FFF7B3FF4FF0E3
:109C6000A0451026C5F808650E4C44F001044020BC
:109C7000A047C5F80C654FF4C850A0473846FFF719
:109C8000A1FFC5F808654020A047C5F80C654FF452
:109C9000C850A047F8BD4FF0A0430822C3F80825DC
:109CA000DAE700BF30B9020070B5FFF77BFF32255D
:109CB0002C4C44F001044FF47A40A047013DF7D109
:109CC0000320FFF77FFF4FF0A0451026C5F8086579
:109CD0004020A047C5F80C6505254FF47A40A04701
:109CE000013DFAD10320FFF76DFF4FF0A04510268C
:109CF000C5F808654020A047C5F80C654FF4C8506A
:109D0000A0470320FFF75EFFC5F808654020A04785
:109D1000C5F80C654FF4C850A0470220FFF752FF6A
:109D2000C5F808654020A047C5F80C654FF4C85039
:109D3000A04700212820FFF787FF4FF42060A047AD
:109D400000210C20FFF780FF4FF42060A047002186
:109D50000120FFF779FF02254FF47A40A047013D2B
:109D6000FAD170BD30B9020008B501280CD08020AE
:109D700008440021C0B2FFF767FF4FF42060034B97
:109D800043F00103984708BDC020F1E730B9020055
:109D900010B5044603E00121FFF756FF0134207897
:109DA0000028F8D110BD0000084B0222C3F80C2592
:109DB0001222C3F81425064AC3F824250422C3F846
:109DC000002501229A601A60704700BF0020004001
:109DD000005027000CE0084AC2F81C35064BD3F8A7
:109DE0001C31012BFAD1044B0022C3F81C21013095
:109DF0000378002BEFD1704700200040064B002273
:109E0000C3F808254FF48032C3F84423C3F8042371
:109E100001221A60704700BF00100140074BD3F8C1
:109E200040314BB1054B0022C3F8402101229A601A
:109E3000034A136801331360704700BF00100140EC
:109E4000DC34002008B5FFF78DFD0020FFF7B2FDE0
:109E5000FFF76EFE0028FBD04FF480410020FDF795
:109E6000ADFBFDF7F5FAFFF7C9FF184B4FF40042C1
:109E7000C3F84025164B4FF400321A60FFF794FFE9
:109E8000FFF712FF00210846FFF76EFF00210120B7
:109E9000FFF76AFF0F48FFF77BFF0F4C0F4B1A6865
:109EA0000F49204600F0C4FA2046FFF771FF0D4825
:109EB000FFF790FF4FF47A744FF47A400A4B43F067
:109EC00001039847013CF7D120BFE6E700100140AD
:109ED00000E100E038B90200C8340020DC34002082
:109EE00044B9020048B9020060B902002E4B2F4A63
:109EF0004FF001014FEAC1614FF03F0072B680F3AD
:109F0000118862B61160586800282BD08446C26957
:109F1000196800292DD1002A11D14FF001034FEA11
:109F20000363234AA2F10102224988B005A80EC0AA
:109F30004FF006006FEA0000BFF34F8F00472DE996
:109F4000F00F002A1FD12EF0040EBDE8F00F60467E
:109F50004FF02402805C1A7B8242DED34FF0000077
:109F6000186058604FF0000080F31188BFF34F8FE6
:109F70007047EFF30980BFF36F8F20E9F00FC861DE
:109F80006046002ADFD018604FF0000058604FF0A4
:109F9000000181F311884EF0040EB2E8F00F82F355
:109FA0000988BFF34F8F7047D035002004ED00E0E3
:109FB00075A20200B99F020003484FF001014FEA69
:109FC000C1710160FEE7000004ED00E04FF0000009
:109FD00080F3118808B0704710B5EFF3118C3F2261
:109FE00072B682F3118862B6C268BAB10346C0681D
:109FF000DA7D0132D2B2DA75197D914212D31A6933
:10A000009C7D52F82420DA609A7D02B999759A7D78
:10A01000013AD2B29A758CF3118810BD6E210748AF
:10A02000FFF762F80024DC6001318A42F3D08CF340
:10A0300011884FF49B710148FFF756F868B9020088
:10A0400008B5837883B1EFF311813F2272B682F3B2
:10A05000118862B6C278D2B2012A06D9C378013B10
:10A06000DBB2C37081F3118808BD013B81F3118815
:10A07000094A12689A4209D903EB83030022014678
:10A08000064800EB830000F00DF8EDE74FF4CD71CA
:10A090000348FFF729F800BF1C350020E0340020FA
:10A0A00070B9020008B5038A9BB2C289934217D2E5
:10A0B00003688B4214D843688B4211D3EFF31182AB
:10A0C0003F2372B683F3118862B683680B608160A8
:10A0D000038A9BB201339BB2038282F3118808BDCD
:10A0E000C8210148FFF700F878B9020070B50546AD
:10A0F00000EB80032F4C04EB8304EFF311833F222A
:10A1000072B682F3118862B632E005EB8502294906
:10A1100001EB82029268002A48D054B105EB850217
:10A12000244901EB820291686160002191606168BD
:10A1300021E083F311886E211F48FEF7D5FFCA681E
:10A14000013ACA60CA685ABB88680A690AB3CA6019
:10A150000C4683F311880368DE6800234FF6FF7214
:10A16000B047EFF311833F2272B682F3118862B6D3
:10A1700061680029C9D0CA68002AE0D14A686260D3
:10A18000CA7802F07F02CA7083F31188BFF36F8F21
:10A19000E7E74A686260CA7802F07F02CA70D8E7CF
:10A1A00083F31188BFF36F8F0C46DAE783F31188CE
:10A1B00070BD00BFA835002080B9020008B5294B4A
:10A1C0001868C0B11868B0FA80F0C0F12000264BC2
:10A1D0005B7BDBB283420ED3234B9A7B234B53F83A
:10A1E000223093F8240030B11E4B1A68411E01231F
:10A1F0008B401A4212D01C4B1A681C4B53F820306B
:10A200008BB1AAB19A4229D0174A53604FF0E0238C
:10A210004FF08052C3F8042D002008BD40F26221A7
:10A220001348FEF761FF4FF41B711148FEF75CFF06
:10A230000D4A127BD2B282420CD20B4A5360DB69C8
:10A24000002BEAD04FF0E0234FF08052C3F8042DEA
:10A250000020E2E70020044B5860DEE70020024BBC
:10A260005860DAE7A4350020D035002020350020E2
:10A2700088B902002DE9F041424B1F7B5D684DB16A
:10A28000FFB2202F06D83F4B00225A601A6095F883
:10A29000244027E04FF42F713B48FEF725FF3B4A4F
:10A2A0001368611E01248C4023EA0404146035E025
:10A2B000344B00225A60334B1F73BDE8F08140F2EB
:10A2C000C6213148FEF710FFEB69002B50D1304B0F
:10A2D00053F8273093F82430A34245D2294B5D60D0
:10A2E000002CE8D0E3B2274A13734FF0000888F33C
:10A2F00011882846FFF770FE06462B685B684246C9
:10A300000146284698473046FFF79AFE3F2372B62B
:10A3100083F3118862B6EB68002BC0D01B4B1B681F
:10A32000002BC5D0194B1C68B4FA84F4C4F1200486
:10A33000174B53F82450002DC1D0124B5B7BDBB27E
:10A34000A342C1D30F4B9B7B03F0FF04002BBBD078
:10A350000E4B1A68611E01238B401A42B4D14FF490
:10A3600034710948FEF7C0FE064B00225A60A2E78E
:10A37000044B5D604FF0E0234FF08052C3F8042D92
:10A3800099E700BFD035002088B90200A43500202D
:10A390002035002008B5074B044613B10021AFF368
:10A3A0000080054B1868836A03B19847204600F087
:10A3B0000BFD00BF0000000090BA020070B50D4D0B
:10A3C0000D4C641BA4100026A64209D10B4D0C4C69
:10A3D00000F0FCFC641BA4100026A64205D170BD51
:10A3E00055F8043B98470136EEE755F8043B98478B
:10A3F0000136F2E7582B0020582B0020582B002064
:10A400005C2B00200A44914200F1FF3300D17047D9
:10A4100010B511F8014B03F8014F9142F9D110BD6D
:10A4200002440346934200D1704703F8011BF9E749
:10A430000EB400B59CB01DAB029006906FF00041C9
:10A44000094807910491094953F8042B05910068C4
:10A45000019302A900F078F8029B00221A701CB048
:10A460005DF804EB03B07047F42A00200802FFFFF8
:10A47000034611F8012B03F8012B002AF9D170478C
:10A48000034613F8012B002AFBD1181A0138704734
:10A490002DE9F0478E689E4282460C4690461F4644
:10A4A00038D88A8912F4906F32D025680969A5EBF3
:10A4B0000109656905EB450505EBD57501334B448D
:10A4C0006D109D4238BF1D46530531D5294600F019
:10A4D000A3FB064650B90C23CAF80030A38943F009
:10A4E0004003A3814FF0FF30BDE8F08721694A4661
:10A4F000FFF788FFA38923F4906343F08003A381CF
:10A50000266165614E44A5EB09052660A5603E46BF
:10A51000BE4200D93E4620683246414600F0F8FA75
:10A52000A3689B1BA3602368334423600020DBE700
:10A530002A4600F0E5FB06460028E1D12169504695
:10A5400000F000FBC7E700002DE9F04F98468B892B
:10A550001B069DB007460D4614460ED50B6963B920
:10A56000402100F059FB2860286120B90C233B6092
:10A570004FF0FF30D1E040236B610023099320238B
:10A580008DF82930CDF80C803023DFF8A8818DF8C4
:10A590002A304FF0010923469A4613F8012B0AB1DD
:10A5A000252AF9D1BAEB040B0BD05B46224629468B
:10A5B0003846FFF76DFF013000F0AA80099A5A442F
:10A5C00009929AF80030002B00F0A28000234FF08F
:10A5D000FF32CDE905230AF1010A049307938DF8B0
:10A5E00053301A935446052214F8011B514800F0C9
:10A5F0003FFA049AD8B9D00644BF20238DF85330CF
:10A60000110744BF2B238DF853309AF800302A2BC2
:10A6100015D0079A544600204FF00A0C214611F835
:10A62000013B303B092B4ED9B0B1079214E0A0EBAF
:10A63000080309FA03F313430493A246D2E7039BEA
:10A64000191D1B680391002BBBBF5B4242F0020245
:10A6500007930793B8BF049223782E2B0CD163780D
:10A660002A2B35D1039B1A1D1B680392002BB8BF00
:10A670004FF0FF3302340593DFF8BCA021780322AA
:10A68000504600F0F5F940B14023A0EB0A0003FA70
:10A6900000F0049B03430134049314F8011B274882
:10A6A0008DF82810062200F0E3F9002838D0244B5A
:10A6B0001BBB039B073323F0070308330393099B5A
:10A6C0003344099367E70CFB02320C460120A5E7EF
:10A6D00000230134059319464FF00A0C204610F868
:10A6E000012B303A092A03D9002BC5D00591C3E7C5
:10A6F0000CFB012104460123F0E703AB00932A463B
:10A70000104B04A93846AFF30080421C0646D6D150
:10A71000AB895B063FF52CAF09981DB0BDE8F08F03
:10A7200003AB00932A46074B04A9384600F07AF899
:10A73000EBE700BF94BA02009ABA02009EBA020088
:10A740000000000091A402002DE9F047164699464A
:10A750008A680B69DDF820809342B8BF13463360E6
:10A7600091F8432007460C460AB101333360236851
:10A77000990642BF336802333360256815F0060539
:10A7800006D104F1190AE36832689B1AAB4226DC51
:10A7900094F84320131E226818BF012392062BD47D
:10A7A00004F1430249463846C04701301ED02368B1
:10A7B000E568326803F00603042B08BFAD1AA368EE
:10A7C00022690CBF25EAE57500259342C4BF9B1A98
:10A7D000ED1800261A34B5421AD1002008E00123F2
:10A7E000524649463846C047013003D14FF0FF304A
:10A7F000BDE8F0870135C6E7E1185A1C302081F822
:10A800004300224494F8451082F843100233C7E70E
:10A810000123224649463846C0470130E6D001367A
:10A82000D9E700002DE9FF470F7E0C9D782F914658
:10A8300080460C469A4601F1430207D8622F0AD897
:10A84000002F00F0D880582F00F0A38004F14205BB
:10A8500084F842703AE0A7F16303152BF6D801A102
:10A8600051F823F0BDA80200D1A802004DA80200B3
:10A870004DA802004DA802004DA80200D1A8020078
:10A880004DA802004DA802004DA802004DA80200EC
:10A89000DDA9020001A90200BFA902004DA8020023
:10A8A0004DA80200FFA902004DA8020001A9020064
:10A8B0004DA802004DA80200C7A902002B681A1D6E
:10A8C0001B682A6004F1420584F842300123A3E0AA
:10A8D00020682968060601F104030AD50E682B607A
:10A8E000002E03DA2D23764284F843305E480A2393
:10A8F00019E00E682B6010F0400F18BF36B2EFE77A
:10A900002B682068191D2960010601D51E6802E028
:10A910004606FBD51E8854486F2F0CBF08230A2318
:10A92000002184F843106568A560002DA2BF21684E
:10A9300021F0040121600EB9002D4DD01546B6FB63
:10A94000F3F103FB1167C75D05F8017D3746BB4294
:10A950000E46F4D9082B0BD12368DE0708D52369EE
:10A9600061689942DEBF302305F8013C05F1FF35EF
:10A97000521B2261CDF800A04B4603AA2146404657
:10A98000FFF7E2FE01304CD14FF0FF3004B0BDE8DC
:10A99000F087354881F845702968236851F8046BC1
:10A9A00029601D0614D5DF0744BF43F02003236050
:10A9B0001EB9236823F0200323601023B0E7236827
:10A9C00043F0200323607823284884F84530E3E7E8
:10A9D000590648BFB6B2E6E71546BBE72B682668BE
:10A9E0006169181D286035061B6801D5196002E0F1
:10A9F0007006FBD51980002323611546BAE72B6842
:10AA00001A1D2A601D6862680021284600F030F88F
:10AA100008B1401B606063682361002384F8433001
:10AA2000A8E723692A4649464046D0470130ABD0C3
:10AA300023689B0713D4E068039B9842B8BF18466D
:10AA4000A4E70123324649464046D04701309BD017
:10AA50000135E36803995B1AAB42F2DCEBE70025B2
:10AA600004F11906F5E700BFA5BA0200B6BA020064
:10AA700001F0FF01102A2BDB10F0070F08D010F8AF
:10AA8000013B013A8B422DD010F0070F42B3F6D1B3
:10AA9000F0B441EA012141EA014122F007047FF0CC
:10AAA00000070023F0E80256083C85EA010586EA23
:10AAB000010685FA47F5A3FA87F586FA47F6A5FA5F
:10AAC00087F68EB9EED1F0BC01F0FF0102F007026B
:10AAD00032B110F8013B013A83EA010313B1F8D116
:10AAE0000020704701387047002D06BF35460338F7
:10AAF000073815F0010F07D1013015F4807F02BF30
:10AB0000013015F4C03F0130F0BC0138704700BF80
:10AB1000884210B501EB020402D98442234607D8CB
:10AB2000431EA14208D011F8012B03F8012FF8E7CA
:10AB3000024401468A4200D110BD13F8014D02F8CB
:10AB4000014DF7E738B50546002941D051F8043CDE
:10AB50000C1F002BB8BFE41800F012F91D4A13684F
:10AB600033B9636014602846BDE8384000F00EB980
:10AB7000A34208D9206821188B4201BF19685B687D
:10AB800009182160EDE71A465B680BB1A342FAD9B8
:10AB900011685018A0420BD120680144501883421C
:10ABA0001160E0D118685B68536001441160DAE716
:10ABB00002D90C232B60D6E7206821188B4204BFF2
:10ABC00019685B68636004BF091821605460CAE7B4
:10ABD00038BD00BFE035002070B50E4E0C46316820
:10ABE000054611B900F0BCF830602146284600F057
:10ABF000B7F8431C0AD0C41C24F00304A04207D0B9
:10AC0000211A284600F0ACF8013001D14FF0FF3492
:10AC1000204670BDE43500202DE9F041CD1C25F023
:10AC2000030508350C2D38BF0C25002D074601DB28
:10AC3000A94205D90C233B6000263046BDE8F081CF
:10AC40002E4E00F09DF833681C4634BB294638462A
:10AC5000FFF7C2FF431C04464DD134682646002E40
:10AC600040D123683146384604EB030800F078F8F9
:10AC700080453AD1216803356D1A25F00305083562
:10AC80000C2D38BF0C2529463846FFF7A5FF0130AB
:10AC90002BD023682B4423600EE02268521B1ED465
:10ACA0000B2A16D96119A342256018BF5960636841
:10ACB00008BF316062514B60384604F10B0600F06A
:10ACC00065F826F00706231DF21AB6D09B1BA35089
:10ACD000B3E76268A3420CBF32605A60ECE72346D8
:10ACE0006468B2E734467668B9E70C233B603846BF
:10ACF00000F04CF8A1E72560DEE700BFE03500205A
:10AD00002DE9F041804614460E4621B9BDE8F041D8
:10AD10001146FFF781BF2AB9FFF714FF25462846E1
:10AD2000BDE8F08100F038F88442074602D8B4EB61
:10AD3000500F12D821464046FFF76EFF0546002807
:10AD4000EDD0BC422246314628BF3A46FFF75AFBB7
:10AD500031464046FFF7F6FEE1E73546DFE7000003
:10AD600038B5064D0023044608462B6000F01EF857
:10AD7000431C02D12B6803B1236038BDE8350020A5
:10AD8000014800F011B800BFEC350020014800F088
:10AD90000CB800BFEC35002051F8043C181F002B04
:10ADA000BCBF0B58C018704770477047044A05492C
:10ADB0001368002B08BF0B461844106018467047F4
:10ADC000F0350020F8350020FEE700BFF8B500BFE1
:10ADD000F8BC08BC9E467047F8B500BFF8BC08BC7C
:10ADE0009E467047000000000000000000000000C8
:10ADF0000338FDD870470000FD720200FB720200AC
:10AE0000F97202002E2E2F6E5246355F53444B5F6F
:10AE100031372E312E305F646464653536302F63F0
:10AE20006F6D706F6E656E74732F6C696272617294
:10AE30006965732F6C6F672F7372632F6E72665F15
:10AE40006C6F675F64656661756C745F6261636B8C
:10AE5000656E64732E6300007274745F6C6F675F5D
:10AE60006261636B656E64002E2E2F6E5246355FF5
:10AE700053444B5F31372E312E305F646464653547
:10AE800036302F636F6D706F6E656E74732F6C69E3
:10AE9000627261726965732F6C6F672F7372632FB3
:10AEA0006E72665F6C6F675F66726F6E74656E64FC
:10AEB0002E6300004261636B656E647320666C757F
:10AEC000736865640000000061707000B03000209D
:10AED0007F000000303100201B5B313B33316D00BF
:10AEE00025734C6F67732064726F707065642028DF
:10AEF00025642925730D0A001B5B306D00000000DE
:10AF0000257300003C25733E2025733A2000000085
:10AF10000D0A00002025303278000000202020009B
:10AF20007C000000256300001B5B313B33306D006B
:10AF30001B5B313B33326D001B5B313B33336D00A8
:10AF40001B5B313B33346D001B5B313B33356D0094
:10AF50001B5B313B33366D001B5B313B33376D0080
:10AF60006572726F720000007761726E696E6700C1
:10AF7000696E666F0000000064656275670000001E
:10AF8000F8AE020028AF0200D8AE020030AF0200D7
:10AF900038AF020040AF020048AF020050AF0200DD
:10AFA00058AF02000000000060AF020068AF02006E
:10AFB00070AF020078AF02006170705F62757474E8
:10AFC0006F6E0000534F46544445564943453A205E
:10AFD000415353455254494F4E204641494C4544F4
:10AFE00000000000534F46544445564943453A201B
:10AFF000494E56414C4944204D454D4F52592041F0
:10B000004343455353000000415353455254494F65
:10B010004E204641494C45442061742025733A2511
:10B02000750000004552524F52202575205B257354
:10B030005D2061742025733A25750D0A5043206107
:10B04000743A20307825303878000000456E64204E
:10B050006F66206572726F72207265706F72740015
:10B06000554E4B4E4F574E204641554C542061741F
:10B0700020307825303858006170705F74696D65D4
:10B08000720000002E2E2F6E5246355F53444B5FE8
:10B0900031372E312E305F646464653536302F636E
:10B0A0006F6D706F6E656E74732F6C696272617212
:10B0B0006965732F7574696C2F6170705F75746941
:10B0C0006C5F706C6174666F726D2E6300000000BF
:10B0D0002E2E2F6E5246355F53444B5F31372E3143
:10B0E0002E305F646464653536302F636F6D706F2A
:10B0F0006E656E74732F6C69627261726965732F0D
:10B1000062616C6C6F632F6E72665F62616C6C6FF4
:10B11000632E63002E2E2F6E5246355F53444B5FD5
:10B1200031372E312E305F646464653536302F65DB
:10B13000787465726E616C2F667072696E74662FBA
:10B140006E72665F667072696E74662E63000000D0
:10B150002E2E2F6E5246355F53444B5F31372E31C2
:10B160002E305F646464653536302F65787465729F
:10B170006E616C2F667072696E74662F6E72665F98
:10B18000667072696E74665F666F726D61742E634D
:10B19000000000003031323334353637383941421F
:10B1A000434445462E2E2F6E5246355F53444B5F27
:10B1B00031372E312E305F646464653536302F634D
:10B1C0006F6D706F6E656E74732F6C6962726172F1
:10B1D0006965732F6D656D6F626A2F6E72665F6D44
:10B1E000656D6F626A2E63002E2E2F6E5246355F9C
:10B1F00053444B5F31372E312E305F6464646535C4
:10B2000036302F636F6D706F6E656E74732F6C695F
:10B21000627261726965732F6578706572696D65B8
:10B220006E74616C5F73656374696F6E5F76617273
:10B23000732F6E72665F73656374696F6E5F697496
:10B2400065722E6300000000736F72746C69737412
:10B25000000000004E52465F535543434553530090
:10B260004E52465F4552524F525F5356435F4841DC
:10B270004E444C45525F4D495353494E47000000E0
:10B280004E52465F4552524F525F534F46544445CB
:10B29000564943455F4E4F545F454E41424C4544ED
:10B2A000000000004E52465F4552524F525F494ED9
:10B2B0005445524E414C00004E52465F4552524F4B
:10B2C000525F4E4F5F4D454D000000004E52465FAD
:10B2D0004552524F525F4E4F545F464F554E4400B9
:10B2E0004E52465F4552524F525F4E4F545F535538
:10B2F00050504F52544544004E52465F4552524FB3
:10B30000525F494E56414C49445F504152414D00B5
:10B310004E52465F4552524F525F494E56414C493C
:10B32000445F5354415445004E52465F4552524F7C
:10B33000525F494E56414C49445F4C454E47544834
:10B34000000000004E52465F4552524F525F494E38
:10B3500056414C49445F464C414753004E52465F6C
:10B360004552524F525F494E56414C49445F444109
:10B37000544100004E52465F4552524F525F444185
:10B3800054415F53495A45004E52465F4552524F11
:10B39000525F54494D454F55540000004E52465F90
:10B3A0004552524F525F4E554C4C00004E52465F34
:10B3B0004552524F525F464F5242494444454E0017
:10B3C0004E52465F4552524F525F494E56414C498C
:10B3D000445F4144445200004E52465F4552524F32
:10B3E000525F4255535900004E52465F4552524FEC
:10B3F000525F434F4E4E5F434F554E540000000086
:10B400004E52465F4552524F525F5245534F55522E
:10B41000434553004E52465F4552524F525F4D4F87
:10B4200044554C455F4E4F545F494E495449414C39
:10B43000495A4544000000004E52465F4552524F63
:10B44000525F4D555445585F494E49545F464149F6
:10B450004C4544004E52465F4552524F525F4D5547
:10B460005445585F4C4F434B5F4641494C4544005F
:10B470004E52465F4552524F525F4D555445585FAC
:10B48000554E4C4F434B5F4641494C4544000000EC
:10B490004E52465F4552524F525F4D555445585F8C
:10B4A000434F4E445F494E49545F4641494C4544E1
:10B4B000000000004E52465F4552524F525F4D4FC2
:10B4C00044554C455F414C52454144595F494E49B2
:10B4D0005449414C495A4544000000004E52465FD1
:10B4E0004552524F525F53544F524147455F465564
:10B4F0004C4C00004E52465F4552524F525F4150F5
:10B50000495F4E4F545F494D504C454D454E544553
:10B51000440000004E52465F4552524F525F46452E
:10B5200041545552455F4E4F545F454E41424C4544
:10B53000440000004E52465F4552524F525F494F01
:10B540005F50454E44494E47000000004E52465F52
:10B550004552524F525F4452565F5457495F4552CD
:10B56000525F4F56455252554E0000004E52465FB4
:10B570004552524F525F4452565F5457495F4552AD
:10B58000525F414E41434B004E52465F4552524F2F
:10B59000525F4452565F5457495F4552525F444E82
:10B5A00041434B004E52465F4552524F525F424C10
:10B5B000455F495053505F52585F504B545F54524F
:10B5C000554E4341544544004E52465F4552524FFA
:10B5D000525F424C455F495053505F4348414E4E85
:10B5E000454C5F414C52454144595F45584953547D
:10B5F000530000004E52465F4552524F525F424C3C
:10B60000455F495053505F4C494E4B5F444953434B
:10B610004F4E4E4543544544000000004E52465F95
:10B620004552524F525F424C455F495053505F5014
:10B630004545525F52454A45435445440000000089
:10B64000556E6B6E6F776E206572726F7220636FCE
:10B65000646500000000000054B202000100000018
:10B6600060B202000200000080B20200030000008D
:10B67000A4B2020004000000B8B2020005000000FD
:10B68000CCB2020006000000E0B202000700000099
:10B69000F8B202000800000010B302000900000028
:10B6A00028B302000A00000044B302000B000000AF
:10B6B0005CB302000C00000074B302000D00000037
:10B6C00088B302000E0000009CB302000F000000CF
:10B6D000ACB3020010000000C0B302001100000073
:10B6E000D8B3020012000000E8B30200130000000B
:10B6F00000B402008000000014B4020081000000C9
:10B7000038B402008200000054B40200830000003C
:10B7100070B402008400000090B4020085000000B4
:10B72000B4B4020086000000DCB402009000000007
:10B73000F4B402009100000014B502009200000071
:10B7400034B50200008200004CB502000182000006
:10B750006CB502000282000088B50200008400007F
:10B76000A4B5020001840000C8B5020002840000F4
:10B77000F4B50200038400001CB602002E2E2F6ECA
:10B780005246355F53444B5F31372E312E305F6464
:10B790006464653536302F6D6F64756C65732F6E1C
:10B7A0007266782F68616C2F6E72665F6770696F62
:10B7B0002E6800004750494F5445000000000050DB
:10B7C000000300502E2E2F6E5246355F53444B5FC0
:10B7D00031372E312E305F646464653536302F6D1D
:10B7E0006F64756C65732F6E7266782F64726976FC
:10B7F0006572732F7372632F7072732F6E72667817
:10B800005F7072732E6300005052530055415254C2
:10B810000000000055415254450000005465726D0F
:10B82000696E616C00000000525454005345474754
:10B83000455200002E2E2F6E5246355F53444B5F0B
:10B8400031372E312E305F646464653536302F6DAC
:10B850006F64756C65732F6E7266782F647269768B
:10B860006572732F7372632F6E7266785F74776977
:10B870002E630000545749002E2E2F6E5246355F1E
:10B8800053444B5F31372E312E305F64646465352D
:10B8900036302F6D6F64756C65732F6E7266782FFE
:10B8A000647269766572732F7372632F6E72667835
:10B8B0005F636C6F636B2E6300000000434C4F436B
:10B8C0004B0000002E2E2F6E5246355F53444B5FC7
:10B8D00031372E312E305F646464653536302F6920
:10B8E0006E746567726174696F6E5C6E7266785CA7
:10B8F0006C65676163795C6E72665F6472765F63C4
:10B900006C6F636B2E630000636C6F636B000000F1
:10B910006E72665F73646800DCBA0200DCBA020013
:10B92000080000000000000000000000000000000F
:10B930000338FDD8704700004920616D20486170D0
:10B9400070790000256C750048656C6C6F2C207751
:10B950006F726C64210D0A000000000000000000FE
:10B960000338FDD87047000071665F616374710031
:10B9700071665F64796E000071665F6D656D0000D1
:10B9800071665F74696D650071786B00002020201E
:10B99000202020202020282828282820202020207F
:10B9A000202020202020202020202020208810104F
:10B9B00010101010101010101010101010040404AB
:10B9C0000404040404040410101010101010414169
:10B9D0004141414101010101010101010101010157
:10B9E000010101010101010110101010101042426B
:10B9F0004242424202020202020202020202020227
:10BA000002020202020202021010101020000000C6
:10BA10000000000000000000000000000000000026
:10BA20000000000000000000000000000000000016
:10BA30000000000000000000000000000000000006
:10BA400000000000000000000000000000000000F6
:10BA500000000000000000000000000000000000E6
:10BA600000000000000000000000000000000000D6
:10BA700000000000000000000000000000000000C6
:10BA800000000000000000000000000000000000B6
:10BA9000F82A0020232D302B2000686C4C006566AE
:10BAA000674546470030313233343536373839410F
:10BAB0004243444546003031323334353637383925
:0CBAC00061626364656600000000000025
:08BACC00F198020000000000E7
:08BAD400B19A0200000000001D
:10BADC00C02B0020882C0020902C0020C82B00208C
:04BAEC00180000003E
:10BAF000BCB8020000000000B4B702000000000063
:10BB000008B802000000000074B802000000000045
:10BB10000CB802000000000014B802000000000091
:10BB2000C8AE020000000303B8AF0200000000002E
:10BB300078B002000000000008B902000000000018
:10BB400010B902000000030348B202000000000028
:10BB5000F8AD02000000000058AE0200E82A002004
:08BB6000E0B6FF7F01000000C8
:10BB680000000000FF0000000090D003F82A002029
:10BB780000000000000000000000000000000000BD
:10BB880000000000000000000000000000000000AD
:10BB9800000000000000000000000000000000009D
:10BBA800000000000000000000000000000000008D
:10BBB800000000000000000000000000000000007D
:10BBC800000000000000000000000000000000006D
:08BBD800257202000172020057
:04000003200072BDAA
:00000001FF
